{
  "contractName": "YouWhoUSD",
  "abi": [
    {
      "inputs": [],
      "stateMutability": "nonpayable",
      "type": "constructor"
    },
    {
      "anonymous": false,
      "inputs": [
        {
          "indexed": true,
          "internalType": "address",
          "name": "owner",
          "type": "address"
        },
        {
          "indexed": true,
          "internalType": "address",
          "name": "spender",
          "type": "address"
        },
        {
          "indexed": false,
          "internalType": "uint256",
          "name": "value",
          "type": "uint256"
        }
      ],
      "name": "Approval",
      "type": "event"
    },
    {
      "anonymous": false,
      "inputs": [
        {
          "indexed": false,
          "internalType": "address",
          "name": "account",
          "type": "address"
        }
      ],
      "name": "Paused",
      "type": "event"
    },
    {
      "anonymous": false,
      "inputs": [
        {
          "indexed": true,
          "internalType": "bytes32",
          "name": "role",
          "type": "bytes32"
        },
        {
          "indexed": true,
          "internalType": "bytes32",
          "name": "previousAdminRole",
          "type": "bytes32"
        },
        {
          "indexed": true,
          "internalType": "bytes32",
          "name": "newAdminRole",
          "type": "bytes32"
        }
      ],
      "name": "RoleAdminChanged",
      "type": "event"
    },
    {
      "anonymous": false,
      "inputs": [
        {
          "indexed": true,
          "internalType": "bytes32",
          "name": "role",
          "type": "bytes32"
        },
        {
          "indexed": true,
          "internalType": "address",
          "name": "account",
          "type": "address"
        },
        {
          "indexed": true,
          "internalType": "address",
          "name": "sender",
          "type": "address"
        }
      ],
      "name": "RoleGranted",
      "type": "event"
    },
    {
      "anonymous": false,
      "inputs": [
        {
          "indexed": true,
          "internalType": "bytes32",
          "name": "role",
          "type": "bytes32"
        },
        {
          "indexed": true,
          "internalType": "address",
          "name": "account",
          "type": "address"
        },
        {
          "indexed": true,
          "internalType": "address",
          "name": "sender",
          "type": "address"
        }
      ],
      "name": "RoleRevoked",
      "type": "event"
    },
    {
      "anonymous": false,
      "inputs": [
        {
          "indexed": true,
          "internalType": "address",
          "name": "from",
          "type": "address"
        },
        {
          "indexed": true,
          "internalType": "address",
          "name": "to",
          "type": "address"
        },
        {
          "indexed": false,
          "internalType": "uint256",
          "name": "value",
          "type": "uint256"
        }
      ],
      "name": "Transfer",
      "type": "event"
    },
    {
      "anonymous": false,
      "inputs": [
        {
          "indexed": false,
          "internalType": "address",
          "name": "account",
          "type": "address"
        }
      ],
      "name": "Unpaused",
      "type": "event"
    },
    {
      "inputs": [],
      "name": "CAP_ROLE",
      "outputs": [
        {
          "internalType": "bytes32",
          "name": "",
          "type": "bytes32"
        }
      ],
      "stateMutability": "view",
      "type": "function"
    },
    {
      "inputs": [],
      "name": "DEFAULT_ADMIN_ROLE",
      "outputs": [
        {
          "internalType": "bytes32",
          "name": "",
          "type": "bytes32"
        }
      ],
      "stateMutability": "view",
      "type": "function"
    },
    {
      "inputs": [],
      "name": "MINTER_ROLE",
      "outputs": [
        {
          "internalType": "bytes32",
          "name": "",
          "type": "bytes32"
        }
      ],
      "stateMutability": "view",
      "type": "function"
    },
    {
      "inputs": [],
      "name": "PAUSER_ROLE",
      "outputs": [
        {
          "internalType": "bytes32",
          "name": "",
          "type": "bytes32"
        }
      ],
      "stateMutability": "view",
      "type": "function"
    },
    {
      "inputs": [
        {
          "internalType": "address",
          "name": "owner",
          "type": "address"
        },
        {
          "internalType": "address",
          "name": "spender",
          "type": "address"
        }
      ],
      "name": "allowance",
      "outputs": [
        {
          "internalType": "uint256",
          "name": "",
          "type": "uint256"
        }
      ],
      "stateMutability": "view",
      "type": "function"
    },
    {
      "inputs": [
        {
          "internalType": "address",
          "name": "spender",
          "type": "address"
        },
        {
          "internalType": "uint256",
          "name": "amount",
          "type": "uint256"
        }
      ],
      "name": "approve",
      "outputs": [
        {
          "internalType": "bool",
          "name": "",
          "type": "bool"
        }
      ],
      "stateMutability": "nonpayable",
      "type": "function"
    },
    {
      "inputs": [
        {
          "internalType": "address",
          "name": "account",
          "type": "address"
        }
      ],
      "name": "balanceOf",
      "outputs": [
        {
          "internalType": "uint256",
          "name": "",
          "type": "uint256"
        }
      ],
      "stateMutability": "view",
      "type": "function"
    },
    {
      "inputs": [
        {
          "internalType": "uint256",
          "name": "amount",
          "type": "uint256"
        }
      ],
      "name": "burn",
      "outputs": [],
      "stateMutability": "nonpayable",
      "type": "function"
    },
    {
      "inputs": [
        {
          "internalType": "address",
          "name": "account",
          "type": "address"
        },
        {
          "internalType": "uint256",
          "name": "amount",
          "type": "uint256"
        }
      ],
      "name": "burnFrom",
      "outputs": [],
      "stateMutability": "nonpayable",
      "type": "function"
    },
    {
      "inputs": [],
      "name": "decimals",
      "outputs": [
        {
          "internalType": "uint8",
          "name": "",
          "type": "uint8"
        }
      ],
      "stateMutability": "view",
      "type": "function"
    },
    {
      "inputs": [
        {
          "internalType": "address",
          "name": "spender",
          "type": "address"
        },
        {
          "internalType": "uint256",
          "name": "subtractedValue",
          "type": "uint256"
        }
      ],
      "name": "decreaseAllowance",
      "outputs": [
        {
          "internalType": "bool",
          "name": "",
          "type": "bool"
        }
      ],
      "stateMutability": "nonpayable",
      "type": "function"
    },
    {
      "inputs": [
        {
          "internalType": "bytes32",
          "name": "role",
          "type": "bytes32"
        }
      ],
      "name": "getRoleAdmin",
      "outputs": [
        {
          "internalType": "bytes32",
          "name": "",
          "type": "bytes32"
        }
      ],
      "stateMutability": "view",
      "type": "function"
    },
    {
      "inputs": [
        {
          "internalType": "bytes32",
          "name": "role",
          "type": "bytes32"
        },
        {
          "internalType": "uint256",
          "name": "index",
          "type": "uint256"
        }
      ],
      "name": "getRoleMember",
      "outputs": [
        {
          "internalType": "address",
          "name": "",
          "type": "address"
        }
      ],
      "stateMutability": "view",
      "type": "function"
    },
    {
      "inputs": [
        {
          "internalType": "bytes32",
          "name": "role",
          "type": "bytes32"
        }
      ],
      "name": "getRoleMemberCount",
      "outputs": [
        {
          "internalType": "uint256",
          "name": "",
          "type": "uint256"
        }
      ],
      "stateMutability": "view",
      "type": "function"
    },
    {
      "inputs": [
        {
          "internalType": "bytes32",
          "name": "role",
          "type": "bytes32"
        },
        {
          "internalType": "address",
          "name": "account",
          "type": "address"
        }
      ],
      "name": "grantRole",
      "outputs": [],
      "stateMutability": "nonpayable",
      "type": "function"
    },
    {
      "inputs": [
        {
          "internalType": "bytes32",
          "name": "role",
          "type": "bytes32"
        },
        {
          "internalType": "address",
          "name": "account",
          "type": "address"
        }
      ],
      "name": "hasRole",
      "outputs": [
        {
          "internalType": "bool",
          "name": "",
          "type": "bool"
        }
      ],
      "stateMutability": "view",
      "type": "function"
    },
    {
      "inputs": [
        {
          "internalType": "address",
          "name": "spender",
          "type": "address"
        },
        {
          "internalType": "uint256",
          "name": "addedValue",
          "type": "uint256"
        }
      ],
      "name": "increaseAllowance",
      "outputs": [
        {
          "internalType": "bool",
          "name": "",
          "type": "bool"
        }
      ],
      "stateMutability": "nonpayable",
      "type": "function"
    },
    {
      "inputs": [],
      "name": "name",
      "outputs": [
        {
          "internalType": "string",
          "name": "",
          "type": "string"
        }
      ],
      "stateMutability": "view",
      "type": "function"
    },
    {
      "inputs": [],
      "name": "paused",
      "outputs": [
        {
          "internalType": "bool",
          "name": "",
          "type": "bool"
        }
      ],
      "stateMutability": "view",
      "type": "function"
    },
    {
      "inputs": [
        {
          "internalType": "bytes32",
          "name": "role",
          "type": "bytes32"
        },
        {
          "internalType": "address",
          "name": "account",
          "type": "address"
        }
      ],
      "name": "renounceRole",
      "outputs": [],
      "stateMutability": "nonpayable",
      "type": "function"
    },
    {
      "inputs": [
        {
          "internalType": "bytes32",
          "name": "role",
          "type": "bytes32"
        },
        {
          "internalType": "address",
          "name": "account",
          "type": "address"
        }
      ],
      "name": "revokeRole",
      "outputs": [],
      "stateMutability": "nonpayable",
      "type": "function"
    },
    {
      "inputs": [
        {
          "internalType": "bytes4",
          "name": "interfaceId",
          "type": "bytes4"
        }
      ],
      "name": "supportsInterface",
      "outputs": [
        {
          "internalType": "bool",
          "name": "",
          "type": "bool"
        }
      ],
      "stateMutability": "view",
      "type": "function"
    },
    {
      "inputs": [],
      "name": "symbol",
      "outputs": [
        {
          "internalType": "string",
          "name": "",
          "type": "string"
        }
      ],
      "stateMutability": "view",
      "type": "function"
    },
    {
      "inputs": [],
      "name": "totalSupply",
      "outputs": [
        {
          "internalType": "uint256",
          "name": "",
          "type": "uint256"
        }
      ],
      "stateMutability": "view",
      "type": "function"
    },
    {
      "inputs": [
        {
          "internalType": "address",
          "name": "recipient",
          "type": "address"
        },
        {
          "internalType": "uint256",
          "name": "amount",
          "type": "uint256"
        }
      ],
      "name": "transfer",
      "outputs": [
        {
          "internalType": "bool",
          "name": "",
          "type": "bool"
        }
      ],
      "stateMutability": "nonpayable",
      "type": "function"
    },
    {
      "inputs": [
        {
          "internalType": "address",
          "name": "sender",
          "type": "address"
        },
        {
          "internalType": "address",
          "name": "recipient",
          "type": "address"
        },
        {
          "internalType": "uint256",
          "name": "amount",
          "type": "uint256"
        }
      ],
      "name": "transferFrom",
      "outputs": [
        {
          "internalType": "bool",
          "name": "",
          "type": "bool"
        }
      ],
      "stateMutability": "nonpayable",
      "type": "function"
    },
    {
      "inputs": [],
      "name": "cap",
      "outputs": [
        {
          "internalType": "uint256",
          "name": "",
          "type": "uint256"
        }
      ],
      "stateMutability": "view",
      "type": "function"
    },
    {
      "inputs": [
        {
          "internalType": "uint256",
          "name": "newCap",
          "type": "uint256"
        }
      ],
      "name": "changeCap",
      "outputs": [],
      "stateMutability": "nonpayable",
      "type": "function"
    },
    {
      "inputs": [
        {
          "internalType": "address",
          "name": "to",
          "type": "address"
        },
        {
          "internalType": "uint256",
          "name": "amount",
          "type": "uint256"
        }
      ],
      "name": "mint",
      "outputs": [],
      "stateMutability": "nonpayable",
      "type": "function"
    },
    {
      "inputs": [],
      "name": "pause",
      "outputs": [],
      "stateMutability": "nonpayable",
      "type": "function"
    },
    {
      "inputs": [],
      "name": "unpause",
      "outputs": [],
      "stateMutability": "nonpayable",
      "type": "function"
    }
  ],
  "bytecode": "0x60806040523480156200001157600080fd5b506040518060400160405280600a81526020017f796f7577686f20555344000000000000000000000000000000000000000000008152506040518060400160405280600681526020017f594f5555534400000000000000000000000000000000000000000000000000008152508160059080519060200190620000969291906200070c565b508060069080519060200190620000af9291906200070c565b5050506000600760006101000a81548160ff0219169083151502179055506200011f620000e16200024560201b60201c565b620000f16200024d60201b60201c565b60ff16600a62000102919062000949565b633b9aca006200011391906200099a565b6200025660201b60201c565b620001436000801b620001376200024560201b60201c565b620003d060201b60201c565b620001847f9f2df0fed2c77648de5860a4cc508cd0818c85b8b8a1ab4ceeef8d981c8956a6620001786200024560201b60201c565b620003d060201b60201c565b620001c57f65d7a28e3265b37a6474929f336521b332c1681b933f6cb9f3376673440d862a620001b96200024560201b60201c565b620003d060201b60201c565b620002067f2865fb6486f1182ff260a98800c07add86e3bf298ef0eac98fcd12371e94abc9620001fa6200024560201b60201c565b620003d060201b60201c565b620002166200024d60201b60201c565b60ff16600a62000227919062000949565b64e8d4a510006200023991906200099a565b60088190555062000c06565b600033905090565b60006012905090565b600073ffffffffffffffffffffffffffffffffffffffff168273ffffffffffffffffffffffffffffffffffffffff161415620002c9576040517f08c379a0000000000000000000000000000000000000000000000000000000008152600401620002c09062000a5c565b60405180910390fd5b620002dd60008383620003e660201b60201c565b8060046000828254620002f1919062000a7e565b9250508190555080600260008473ffffffffffffffffffffffffffffffffffffffff1673ffffffffffffffffffffffffffffffffffffffff168152602001908152602001600020600082825462000349919062000a7e565b925050819055508173ffffffffffffffffffffffffffffffffffffffff16600073ffffffffffffffffffffffffffffffffffffffff167fddf252ad1be2c89b69c2b068fc378daa952ba7f163c4a11628f55a4df523b3ef83604051620003b0919062000aec565b60405180910390a3620003cc600083836200040360201b60201c565b5050565b620003e282826200040860201b60201c565b5050565b620003fe8383836200045060201b620010e01760201c565b505050565b505050565b6200041f8282620004c060201b620011381760201c565b6200044b8160016000858152602001908152602001600020620005b160201b620012181790919060201c565b505050565b62000468838383620005e960201b620012481760201c565b62000478620005ee60201b60201c565b15620004bb576040517f08c379a0000000000000000000000000000000000000000000000000000000008152600401620004b29062000b7f565b60405180910390fd5b505050565b620004d282826200060560201b60201c565b620005ad57600160008084815260200190815260200160002060000160008373ffffffffffffffffffffffffffffffffffffffff1673ffffffffffffffffffffffffffffffffffffffff16815260200190815260200160002060006101000a81548160ff021916908315150217905550620005526200024560201b60201c565b73ffffffffffffffffffffffffffffffffffffffff168173ffffffffffffffffffffffffffffffffffffffff16837f2f8788117e7eff1d82e926ec794901d17c78024a50270940304540a733656f0d60405160405180910390a45b5050565b6000620005e1836000018373ffffffffffffffffffffffffffffffffffffffff1660001b6200066f60201b60201c565b905092915050565b505050565b6000600760009054906101000a900460ff16905090565b600080600084815260200190815260200160002060000160008373ffffffffffffffffffffffffffffffffffffffff1673ffffffffffffffffffffffffffffffffffffffff16815260200190815260200160002060009054906101000a900460ff16905092915050565b6000620006838383620006e960201b60201c565b620006de578260000182908060018154018082558091505060019003906000526020600020016000909190919091505582600001805490508360010160008481526020019081526020016000208190555060019050620006e3565b600090505b92915050565b600080836001016000848152602001908152602001600020541415905092915050565b8280546200071a9062000bd0565b90600052602060002090601f0160209004810192826200073e57600085556200078a565b82601f106200075957805160ff19168380011785556200078a565b828001600101855582156200078a579182015b82811115620007895782518255916020019190600101906200076c565b5b5090506200079991906200079d565b5090565b5b80821115620007b85760008160009055506001016200079e565b5090565b7f4e487b7100000000000000000000000000000000000000000000000000000000600052601160045260246000fd5b60008160011c9050919050565b6000808291508390505b60018511156200084a57808604811115620008225762000821620007bc565b5b6001851615620008325780820291505b80810290506200084285620007eb565b945062000802565b94509492505050565b60008262000865576001905062000938565b8162000875576000905062000938565b81600181146200088e57600281146200089957620008cf565b600191505062000938565b60ff841115620008ae57620008ad620007bc565b5b8360020a915084821115620008c857620008c7620007bc565b5b5062000938565b5060208310610133831016604e8410600b8410161715620009095782820a905083811115620009035762000902620007bc565b5b62000938565b620009188484846001620007f8565b92509050818404811115620009325762000931620007bc565b5b81810290505b9392505050565b6000819050919050565b600062000956826200093f565b915062000963836200093f565b9250620009927fffffffffffffffffffffffffffffffffffffffffffffffffffffffffffffffff848462000853565b905092915050565b6000620009a7826200093f565b9150620009b4836200093f565b9250817fffffffffffffffffffffffffffffffffffffffffffffffffffffffffffffffff0483118215151615620009f057620009ef620007bc565b5b828202905092915050565b600082825260208201905092915050565b7f45524332303a206d696e7420746f20746865207a65726f206164647265737300600082015250565b600062000a44601f83620009fb565b915062000a518262000a0c565b602082019050919050565b6000602082019050818103600083015262000a778162000a35565b9050919050565b600062000a8b826200093f565b915062000a98836200093f565b9250827fffffffffffffffffffffffffffffffffffffffffffffffffffffffffffffffff0382111562000ad05762000acf620007bc565b5b828201905092915050565b62000ae6816200093f565b82525050565b600060208201905062000b03600083018462000adb565b92915050565b7f45524332305061757361626c653a20746f6b656e207472616e7366657220776860008201527f696c652070617573656400000000000000000000000000000000000000000000602082015250565b600062000b67602a83620009fb565b915062000b748262000b09565b604082019050919050565b6000602082019050818103600083015262000b9a8162000b58565b9050919050565b7f4e487b7100000000000000000000000000000000000000000000000000000000600052602260045260246000fd5b6000600282049050600182168062000be957607f821691505b6020821081141562000c005762000bff62000ba1565b5b50919050565b6136918062000c166000396000f3fe608060405234801561001057600080fd5b50600436106101e55760003560e01c806370a082311161010f578063a217fddf116100a2578063d539139311610071578063d5391393146105a6578063d547741f146105c4578063dd62ed3e146105e0578063e63ab1e914610610576101e5565b8063a217fddf146104f8578063a457c2d714610516578063a9059cbb14610546578063ca15c87314610576576101e5565b80638456cb59116100de5780638456cb59146104705780639010d07c1461047a57806391d14854146104aa57806395d89b41146104da576101e5565b806370a08231146103ea57806379cc67901461041a578063800edb9d1461043657806382c95f9c14610452576101e5565b8063313ce567116101875780633f4ba83a116101565780633f4ba83a1461038a57806340c10f191461039457806342966c68146103b05780635c975abb146103cc576101e5565b8063313ce56714610302578063355274ea1461032057806336568abe1461033e578063395093511461035a576101e5565b806318160ddd116101c357806318160ddd1461026857806323b872dd14610286578063248a9ca3146102b65780632f2ff15d146102e6576101e5565b806301ffc9a7146101ea57806306fdde031461021a578063095ea7b314610238575b600080fd5b61020460048036038101906101ff91906122dd565b61062e565b6040516102119190612325565b60405180910390f35b6102226106a8565b60405161022f91906123d9565b60405180910390f35b610252600480360381019061024d919061248f565b61073a565b60405161025f9190612325565b60405180910390f35b610270610758565b60405161027d91906124de565b60405180910390f35b6102a0600480360381019061029b91906124f9565b610762565b6040516102ad9190612325565b60405180910390f35b6102d060048036038101906102cb9190612582565b61085a565b6040516102dd91906125be565b60405180910390f35b61030060048036038101906102fb91906125d9565b610879565b005b61030a6108a2565b6040516103179190612635565b60405180910390f35b6103286108ab565b60405161033591906124de565b60405180910390f35b610358600480360381019061035391906125d9565b6108b5565b005b610374600480360381019061036f919061248f565b610938565b6040516103819190612325565b60405180910390f35b6103926109e4565b005b6103ae60048036038101906103a9919061248f565b610a5e565b005b6103ca60048036038101906103c59190612650565b610b38565b005b6103d4610b4c565b6040516103e19190612325565b60405180910390f35b61040460048036038101906103ff919061267d565b610b63565b60405161041191906124de565b60405180910390f35b610434600480360381019061042f919061248f565b610bac565b005b610450600480360381019061044b9190612650565b610c27565b005b61045a610ceb565b60405161046791906125be565b60405180910390f35b610478610d0f565b005b610494600480360381019061048f91906126aa565b610d89565b6040516104a191906126f9565b60405180910390f35b6104c460048036038101906104bf91906125d9565b610db8565b6040516104d19190612325565b60405180910390f35b6104e2610e22565b6040516104ef91906123d9565b60405180910390f35b610500610eb4565b60405161050d91906125be565b60405180910390f35b610530600480360381019061052b919061248f565b610ebb565b60405161053d9190612325565b60405180910390f35b610560600480360381019061055b919061248f565b610fa6565b60405161056d9190612325565b60405180910390f35b610590600480360381019061058b9190612582565b610fc4565b60405161059d91906124de565b60405180910390f35b6105ae610fe8565b6040516105bb91906125be565b60405180910390f35b6105de60048036038101906105d991906125d9565b61100c565b005b6105fa60048036038101906105f59190612714565b611035565b60405161060791906124de565b60405180910390f35b6106186110bc565b60405161062591906125be565b60405180910390f35b60007f5a05180f000000000000000000000000000000000000000000000000000000007bffffffffffffffffffffffffffffffffffffffffffffffffffffffff1916827bffffffffffffffffffffffffffffffffffffffffffffffffffffffff191614806106a157506106a08261124d565b5b9050919050565b6060600580546106b790612783565b80601f01602080910402602001604051908101604052809291908181526020018280546106e390612783565b80156107305780601f1061070557610100808354040283529160200191610730565b820191906000526020600020905b81548152906001019060200180831161071357829003601f168201915b5050505050905090565b600061074e6107476112c7565b84846112cf565b6001905092915050565b6000600454905090565b600061076f84848461149a565b6000600360008673ffffffffffffffffffffffffffffffffffffffff1673ffffffffffffffffffffffffffffffffffffffff16815260200190815260200160002060006107ba6112c7565b73ffffffffffffffffffffffffffffffffffffffff1673ffffffffffffffffffffffffffffffffffffffff1681526020019081526020016000205490508281101561083a576040517f08c379a000000000000000000000000000000000000000000000000000000000815260040161083190612827565b60405180910390fd5b61084e856108466112c7565b8584036112cf565b60019150509392505050565b6000806000838152602001908152602001600020600101549050919050565b6108828261085a565b6108938161088e6112c7565b61171e565b61089d83836117bb565b505050565b60006012905090565b6000600854905090565b6108bd6112c7565b73ffffffffffffffffffffffffffffffffffffffff168173ffffffffffffffffffffffffffffffffffffffff161461092a576040517f08c379a0000000000000000000000000000000000000000000000000000000008152600401610921906128b9565b60405180910390fd5b61093482826117ef565b5050565b60006109da6109456112c7565b8484600360006109536112c7565b73ffffffffffffffffffffffffffffffffffffffff1673ffffffffffffffffffffffffffffffffffffffff16815260200190815260200160002060008873ffffffffffffffffffffffffffffffffffffffff1673ffffffffffffffffffffffffffffffffffffffff168152602001908152602001600020546109d59190612908565b6112cf565b6001905092915050565b610a157f65d7a28e3265b37a6474929f336521b332c1681b933f6cb9f3376673440d862a610a106112c7565b610db8565b610a54576040517f08c379a0000000000000000000000000000000000000000000000000000000008152600401610a4b906129d0565b60405180910390fd5b610a5c611823565b565b610a8f7f9f2df0fed2c77648de5860a4cc508cd0818c85b8b8a1ab4ceeef8d981c8956a6610a8a6112c7565b610db8565b610ace576040517f08c379a0000000000000000000000000000000000000000000000000000000008152600401610ac590612a62565b60405180910390fd5b610ad66108ab565b81610adf610758565b610ae99190612908565b1115610b2a576040517f08c379a0000000000000000000000000000000000000000000000000000000008152600401610b2190612ace565b60405180910390fd5b610b3482826118c5565b5050565b610b49610b436112c7565b82611a26565b50565b6000600760009054906101000a900460ff16905090565b6000600260008373ffffffffffffffffffffffffffffffffffffffff1673ffffffffffffffffffffffffffffffffffffffff168152602001908152602001600020549050919050565b6000610bbf83610bba6112c7565b611035565b905081811015610c04576040517f08c379a0000000000000000000000000000000000000000000000000000000008152600401610bfb90612b60565b60405180910390fd5b610c1883610c106112c7565b8484036112cf565b610c228383611a26565b505050565b610c587f2865fb6486f1182ff260a98800c07add86e3bf298ef0eac98fcd12371e94abc9610c536112c7565b610db8565b610c97576040517f08c379a0000000000000000000000000000000000000000000000000000000008152600401610c8e90612bf2565b60405180910390fd5b80610ca0610758565b1115610ce1576040517f08c379a0000000000000000000000000000000000000000000000000000000008152600401610cd890612c84565b60405180910390fd5b8060088190555050565b7f2865fb6486f1182ff260a98800c07add86e3bf298ef0eac98fcd12371e94abc981565b610d407f65d7a28e3265b37a6474929f336521b332c1681b933f6cb9f3376673440d862a610d3b6112c7565b610db8565b610d7f576040517f08c379a0000000000000000000000000000000000000000000000000000000008152600401610d7690612d16565b60405180910390fd5b610d87611bff565b565b6000610db08260016000868152602001908152602001600020611ca290919063ffffffff16565b905092915050565b600080600084815260200190815260200160002060000160008373ffffffffffffffffffffffffffffffffffffffff1673ffffffffffffffffffffffffffffffffffffffff16815260200190815260200160002060009054906101000a900460ff16905092915050565b606060068054610e3190612783565b80601f0160208091040260200160405190810160405280929190818152602001828054610e5d90612783565b8015610eaa5780601f10610e7f57610100808354040283529160200191610eaa565b820191906000526020600020905b815481529060010190602001808311610e8d57829003601f168201915b5050505050905090565b6000801b81565b60008060036000610eca6112c7565b73ffffffffffffffffffffffffffffffffffffffff1673ffffffffffffffffffffffffffffffffffffffff16815260200190815260200160002060008573ffffffffffffffffffffffffffffffffffffffff1673ffffffffffffffffffffffffffffffffffffffff16815260200190815260200160002054905082811015610f87576040517f08c379a0000000000000000000000000000000000000000000000000000000008152600401610f7e90612da8565b60405180910390fd5b610f9b610f926112c7565b858584036112cf565b600191505092915050565b6000610fba610fb36112c7565b848461149a565b6001905092915050565b6000610fe160016000848152602001908152602001600020611cbc565b9050919050565b7f9f2df0fed2c77648de5860a4cc508cd0818c85b8b8a1ab4ceeef8d981c8956a681565b6110158261085a565b611026816110216112c7565b61171e565b61103083836117ef565b505050565b6000600360008473ffffffffffffffffffffffffffffffffffffffff1673ffffffffffffffffffffffffffffffffffffffff16815260200190815260200160002060008373ffffffffffffffffffffffffffffffffffffffff1673ffffffffffffffffffffffffffffffffffffffff16815260200190815260200160002054905092915050565b7f65d7a28e3265b37a6474929f336521b332c1681b933f6cb9f3376673440d862a81565b6110eb838383611248565b6110f3610b4c565b15611133576040517f08c379a000000000000000000000000000000000000000000000000000000000815260040161112a90612e3a565b60405180910390fd5b505050565b6111428282610db8565b61121457600160008084815260200190815260200160002060000160008373ffffffffffffffffffffffffffffffffffffffff1673ffffffffffffffffffffffffffffffffffffffff16815260200190815260200160002060006101000a81548160ff0219169083151502179055506111b96112c7565b73ffffffffffffffffffffffffffffffffffffffff168173ffffffffffffffffffffffffffffffffffffffff16837f2f8788117e7eff1d82e926ec794901d17c78024a50270940304540a733656f0d60405160405180910390a45b5050565b6000611240836000018373ffffffffffffffffffffffffffffffffffffffff1660001b611cd1565b905092915050565b505050565b60007f7965db0b000000000000000000000000000000000000000000000000000000007bffffffffffffffffffffffffffffffffffffffffffffffffffffffff1916827bffffffffffffffffffffffffffffffffffffffffffffffffffffffff191614806112c057506112bf82611d41565b5b9050919050565b600033905090565b600073ffffffffffffffffffffffffffffffffffffffff168373ffffffffffffffffffffffffffffffffffffffff16141561133f576040517f08c379a000000000000000000000000000000000000000000000000000000000815260040161133690612ecc565b60405180910390fd5b600073ffffffffffffffffffffffffffffffffffffffff168273ffffffffffffffffffffffffffffffffffffffff1614156113af576040517f08c379a00000000000000000000000000000000000000000000000000000000081526004016113a690612f5e565b60405180910390fd5b80600360008573ffffffffffffffffffffffffffffffffffffffff1673ffffffffffffffffffffffffffffffffffffffff16815260200190815260200160002060008473ffffffffffffffffffffffffffffffffffffffff1673ffffffffffffffffffffffffffffffffffffffff168152602001908152602001600020819055508173ffffffffffffffffffffffffffffffffffffffff168373ffffffffffffffffffffffffffffffffffffffff167f8c5be1e5ebec7d5bd14f71427d1e84f3dd0314c0f7b2291e5b200ac8c7c3b9258360405161148d91906124de565b60405180910390a3505050565b600073ffffffffffffffffffffffffffffffffffffffff168373ffffffffffffffffffffffffffffffffffffffff16141561150a576040517f08c379a000000000000000000000000000000000000000000000000000000000815260040161150190612ff0565b60405180910390fd5b600073ffffffffffffffffffffffffffffffffffffffff168273ffffffffffffffffffffffffffffffffffffffff16141561157a576040517f08c379a000000000000000000000000000000000000000000000000000000000815260040161157190613082565b60405180910390fd5b611585838383611dab565b6000600260008573ffffffffffffffffffffffffffffffffffffffff1673ffffffffffffffffffffffffffffffffffffffff1681526020019081526020016000205490508181101561160c576040517f08c379a000000000000000000000000000000000000000000000000000000000815260040161160390613114565b60405180910390fd5b818103600260008673ffffffffffffffffffffffffffffffffffffffff1673ffffffffffffffffffffffffffffffffffffffff1681526020019081526020016000208190555081600260008573ffffffffffffffffffffffffffffffffffffffff1673ffffffffffffffffffffffffffffffffffffffff16815260200190815260200160002060008282546116a19190612908565b925050819055508273ffffffffffffffffffffffffffffffffffffffff168473ffffffffffffffffffffffffffffffffffffffff167fddf252ad1be2c89b69c2b068fc378daa952ba7f163c4a11628f55a4df523b3ef8460405161170591906124de565b60405180910390a3611718848484611dbb565b50505050565b6117288282610db8565b6117b75761174d8173ffffffffffffffffffffffffffffffffffffffff166014611dc0565b61175b8360001c6020611dc0565b60405160200161176c929190613208565b6040516020818303038152906040526040517f08c379a00000000000000000000000000000000000000000000000000000000081526004016117ae91906123d9565b60405180910390fd5b5050565b6117c58282611138565b6117ea816001600085815260200190815260200160002061121890919063ffffffff16565b505050565b6117f98282611ffc565b61181e81600160008581526020019081526020016000206120dd90919063ffffffff16565b505050565b61182b610b4c565b61186a576040517f08c379a00000000000000000000000000000000000000000000000000000000081526004016118619061328e565b60405180910390fd5b6000600760006101000a81548160ff0219169083151502179055507f5db9ee0a495bf2e6ff9c91a7834c1ba4fdd244a5e8aa4e537bd38aeae4b073aa6118ae6112c7565b6040516118bb91906126f9565b60405180910390a1565b600073ffffffffffffffffffffffffffffffffffffffff168273ffffffffffffffffffffffffffffffffffffffff161415611935576040517f08c379a000000000000000000000000000000000000000000000000000000000815260040161192c906132fa565b60405180910390fd5b61194160008383611dab565b80600460008282546119539190612908565b9250508190555080600260008473ffffffffffffffffffffffffffffffffffffffff1673ffffffffffffffffffffffffffffffffffffffff16815260200190815260200160002060008282546119a99190612908565b925050819055508173ffffffffffffffffffffffffffffffffffffffff16600073ffffffffffffffffffffffffffffffffffffffff167fddf252ad1be2c89b69c2b068fc378daa952ba7f163c4a11628f55a4df523b3ef83604051611a0e91906124de565b60405180910390a3611a2260008383611dbb565b5050565b600073ffffffffffffffffffffffffffffffffffffffff168273ffffffffffffffffffffffffffffffffffffffff161415611a96576040517f08c379a0000000000000000000000000000000000000000000000000000000008152600401611a8d9061338c565b60405180910390fd5b611aa282600083611dab565b6000600260008473ffffffffffffffffffffffffffffffffffffffff1673ffffffffffffffffffffffffffffffffffffffff16815260200190815260200160002054905081811015611b29576040517f08c379a0000000000000000000000000000000000000000000000000000000008152600401611b209061341e565b60405180910390fd5b818103600260008573ffffffffffffffffffffffffffffffffffffffff1673ffffffffffffffffffffffffffffffffffffffff168152602001908152602001600020819055508160046000828254611b81919061343e565b92505081905550600073ffffffffffffffffffffffffffffffffffffffff168373ffffffffffffffffffffffffffffffffffffffff167fddf252ad1be2c89b69c2b068fc378daa952ba7f163c4a11628f55a4df523b3ef84604051611be691906124de565b60405180910390a3611bfa83600084611dbb565b505050565b611c07610b4c565b15611c47576040517f08c379a0000000000000000000000000000000000000000000000000000000008152600401611c3e906134be565b60405180910390fd5b6001600760006101000a81548160ff0219169083151502179055507f62e78cea01bee320cd4e420270b5ea74000d11b0c9f74754ebdbfc544b05a258611c8b6112c7565b604051611c9891906126f9565b60405180910390a1565b6000611cb1836000018361210d565b60001c905092915050565b6000611cca82600001612138565b9050919050565b6000611cdd8383612149565b611d36578260000182908060018154018082558091505060019003906000526020600020016000909190919091505582600001805490508360010160008481526020019081526020016000208190555060019050611d3b565b600090505b92915050565b60007f01ffc9a7000000000000000000000000000000000000000000000000000000007bffffffffffffffffffffffffffffffffffffffffffffffffffffffff1916827bffffffffffffffffffffffffffffffffffffffffffffffffffffffff1916149050919050565b611db68383836110e0565b505050565b505050565b606060006002836002611dd391906134de565b611ddd9190612908565b67ffffffffffffffff811115611df657611df5613538565b5b6040519080825280601f01601f191660200182016040528015611e285781602001600182028036833780820191505090505b5090507f300000000000000000000000000000000000000000000000000000000000000081600081518110611e6057611e5f613567565b5b60200101907effffffffffffffffffffffffffffffffffffffffffffffffffffffffffffff1916908160001a9053507f780000000000000000000000000000000000000000000000000000000000000081600181518110611ec457611ec3613567565b5b60200101907effffffffffffffffffffffffffffffffffffffffffffffffffffffffffffff1916908160001a90535060006001846002611f0491906134de565b611f0e9190612908565b90505b6001811115611fae577f3031323334353637383961626364656600000000000000000000000000000000600f861660108110611f5057611f4f613567565b5b1a60f81b828281518110611f6757611f66613567565b5b60200101907effffffffffffffffffffffffffffffffffffffffffffffffffffffffffffff1916908160001a905350600485901c945080611fa790613596565b9050611f11565b5060008414611ff2576040517f08c379a0000000000000000000000000000000000000000000000000000000008152600401611fe99061360c565b60405180910390fd5b8091505092915050565b6120068282610db8565b156120d957600080600084815260200190815260200160002060000160008373ffffffffffffffffffffffffffffffffffffffff1673ffffffffffffffffffffffffffffffffffffffff16815260200190815260200160002060006101000a81548160ff02191690831515021790555061207e6112c7565b73ffffffffffffffffffffffffffffffffffffffff168173ffffffffffffffffffffffffffffffffffffffff16837ff6391f5c32d9c69d2a47ea670b442974b53935d1edc7fd64eb21e047a839171b60405160405180910390a45b5050565b6000612105836000018373ffffffffffffffffffffffffffffffffffffffff1660001b61216c565b905092915050565b600082600001828154811061212557612124613567565b5b9060005260206000200154905092915050565b600081600001805490509050919050565b600080836001016000848152602001908152602001600020541415905092915050565b6000808360010160008481526020019081526020016000205490506000811461227457600060018261219e919061343e565b90506000600186600001805490506121b6919061343e565b90508181146122255760008660000182815481106121d7576121d6613567565b5b90600052602060002001549050808760000184815481106121fb576121fa613567565b5b90600052602060002001819055508387600101600083815260200190815260200160002081905550505b856000018054806122395761223861362c565b5b60019003818190600052602060002001600090559055856001016000868152602001908152602001600020600090556001935050505061227a565b60009150505b92915050565b600080fd5b60007fffffffff0000000000000000000000000000000000000000000000000000000082169050919050565b6122ba81612285565b81146122c557600080fd5b50565b6000813590506122d7816122b1565b92915050565b6000602082840312156122f3576122f2612280565b5b6000612301848285016122c8565b91505092915050565b60008115159050919050565b61231f8161230a565b82525050565b600060208201905061233a6000830184612316565b92915050565b600081519050919050565b600082825260208201905092915050565b60005b8381101561237a57808201518184015260208101905061235f565b83811115612389576000848401525b50505050565b6000601f19601f8301169050919050565b60006123ab82612340565b6123b5818561234b565b93506123c581856020860161235c565b6123ce8161238f565b840191505092915050565b600060208201905081810360008301526123f381846123a0565b905092915050565b600073ffffffffffffffffffffffffffffffffffffffff82169050919050565b6000612426826123fb565b9050919050565b6124368161241b565b811461244157600080fd5b50565b6000813590506124538161242d565b92915050565b6000819050919050565b61246c81612459565b811461247757600080fd5b50565b60008135905061248981612463565b92915050565b600080604083850312156124a6576124a5612280565b5b60006124b485828601612444565b92505060206124c58582860161247a565b9150509250929050565b6124d881612459565b82525050565b60006020820190506124f360008301846124cf565b92915050565b60008060006060848603121561251257612511612280565b5b600061252086828701612444565b935050602061253186828701612444565b92505060406125428682870161247a565b9150509250925092565b6000819050919050565b61255f8161254c565b811461256a57600080fd5b50565b60008135905061257c81612556565b92915050565b60006020828403121561259857612597612280565b5b60006125a68482850161256d565b91505092915050565b6125b88161254c565b82525050565b60006020820190506125d360008301846125af565b92915050565b600080604083850312156125f0576125ef612280565b5b60006125fe8582860161256d565b925050602061260f85828601612444565b9150509250929050565b600060ff82169050919050565b61262f81612619565b82525050565b600060208201905061264a6000830184612626565b92915050565b60006020828403121561266657612665612280565b5b60006126748482850161247a565b91505092915050565b60006020828403121561269357612692612280565b5b60006126a184828501612444565b91505092915050565b600080604083850312156126c1576126c0612280565b5b60006126cf8582860161256d565b92505060206126e08582860161247a565b9150509250929050565b6126f38161241b565b82525050565b600060208201905061270e60008301846126ea565b92915050565b6000806040838503121561272b5761272a612280565b5b600061273985828601612444565b925050602061274a85828601612444565b9150509250929050565b7f4e487b7100000000000000000000000000000000000000000000000000000000600052602260045260246000fd5b6000600282049050600182168061279b57607f821691505b602082108114156127af576127ae612754565b5b50919050565b7f45524332303a207472616e7366657220616d6f756e742065786365656473206160008201527f6c6c6f77616e6365000000000000000000000000000000000000000000000000602082015250565b600061281160288361234b565b915061281c826127b5565b604082019050919050565b6000602082019050818103600083015261284081612804565b9050919050565b7f416363657373436f6e74726f6c3a2063616e206f6e6c792072656e6f756e636560008201527f20726f6c657320666f722073656c660000000000000000000000000000000000602082015250565b60006128a3602f8361234b565b91506128ae82612847565b604082019050919050565b600060208201905081810360008301526128d281612896565b9050919050565b7f4e487b7100000000000000000000000000000000000000000000000000000000600052601160045260246000fd5b600061291382612459565b915061291e83612459565b9250827fffffffffffffffffffffffffffffffffffffffffffffffffffffffffffffffff03821115612953576129526128d9565b5b828201905092915050565b7f45524332305072657365744d696e7465725061757365723a206d75737420686160008201527f76652070617573657220726f6c6520746f20756e706175736500000000000000602082015250565b60006129ba60398361234b565b91506129c58261295e565b604082019050919050565b600060208201905081810360008301526129e9816129ad565b9050919050565b7f45524332305072657365744d696e7465725061757365723a206d75737420686160008201527f7665206d696e74657220726f6c6520746f206d696e7400000000000000000000602082015250565b6000612a4c60368361234b565b9150612a57826129f0565b604082019050919050565b60006020820190508181036000830152612a7b81612a3f565b9050919050565b7f45524332304361707065643a2063617020657863656564656400000000000000600082015250565b6000612ab860198361234b565b9150612ac382612a82565b602082019050919050565b60006020820190508181036000830152612ae781612aab565b9050919050565b7f45524332303a206275726e20616d6f756e74206578636565647320616c6c6f7760008201527f616e636500000000000000000000000000000000000000000000000000000000602082015250565b6000612b4a60248361234b565b9150612b5582612aee565b604082019050919050565b60006020820190508181036000830152612b7981612b3d565b9050919050565b7f45524332305072657365744d696e7465725061757365723a206d75737420686160008201527f76652063617020726f6c6520746f206368616e67652063617000000000000000602082015250565b6000612bdc60398361234b565b9150612be782612b80565b604082019050919050565b60006020820190508181036000830152612c0b81612bcf565b9050919050565b7f45524332304361707065643a206e6577206361702063616e74206265206c657360008201527f73207468616e2063757272656e7420746f74616c20737570706c790000000000602082015250565b6000612c6e603b8361234b565b9150612c7982612c12565b604082019050919050565b60006020820190508181036000830152612c9d81612c61565b9050919050565b7f45524332305072657365744d696e7465725061757365723a206d75737420686160008201527f76652070617573657220726f6c6520746f207061757365000000000000000000602082015250565b6000612d0060378361234b565b9150612d0b82612ca4565b604082019050919050565b60006020820190508181036000830152612d2f81612cf3565b9050919050565b7f45524332303a2064656372656173656420616c6c6f77616e63652062656c6f7760008201527f207a65726f000000000000000000000000000000000000000000000000000000602082015250565b6000612d9260258361234b565b9150612d9d82612d36565b604082019050919050565b60006020820190508181036000830152612dc181612d85565b9050919050565b7f45524332305061757361626c653a20746f6b656e207472616e7366657220776860008201527f696c652070617573656400000000000000000000000000000000000000000000602082015250565b6000612e24602a8361234b565b9150612e2f82612dc8565b604082019050919050565b60006020820190508181036000830152612e5381612e17565b9050919050565b7f45524332303a20617070726f76652066726f6d20746865207a65726f2061646460008201527f7265737300000000000000000000000000000000000000000000000000000000602082015250565b6000612eb660248361234b565b9150612ec182612e5a565b604082019050919050565b60006020820190508181036000830152612ee581612ea9565b9050919050565b7f45524332303a20617070726f766520746f20746865207a65726f20616464726560008201527f7373000000000000000000000000000000000000000000000000000000000000602082015250565b6000612f4860228361234b565b9150612f5382612eec565b604082019050919050565b60006020820190508181036000830152612f7781612f3b565b9050919050565b7f45524332303a207472616e736665722066726f6d20746865207a65726f20616460008201527f6472657373000000000000000000000000000000000000000000000000000000602082015250565b6000612fda60258361234b565b9150612fe582612f7e565b604082019050919050565b6000602082019050818103600083015261300981612fcd565b9050919050565b7f45524332303a207472616e7366657220746f20746865207a65726f206164647260008201527f6573730000000000000000000000000000000000000000000000000000000000602082015250565b600061306c60238361234b565b915061307782613010565b604082019050919050565b6000602082019050818103600083015261309b8161305f565b9050919050565b7f45524332303a207472616e7366657220616d6f756e742065786365656473206260008201527f616c616e63650000000000000000000000000000000000000000000000000000602082015250565b60006130fe60268361234b565b9150613109826130a2565b604082019050919050565b6000602082019050818103600083015261312d816130f1565b9050919050565b600081905092915050565b7f416363657373436f6e74726f6c3a206163636f756e7420000000000000000000600082015250565b6000613175601783613134565b91506131808261313f565b601782019050919050565b600061319682612340565b6131a08185613134565b93506131b081856020860161235c565b80840191505092915050565b7f206973206d697373696e6720726f6c6520000000000000000000000000000000600082015250565b60006131f2601183613134565b91506131fd826131bc565b601182019050919050565b600061321382613168565b915061321f828561318b565b915061322a826131e5565b9150613236828461318b565b91508190509392505050565b7f5061757361626c653a206e6f7420706175736564000000000000000000000000600082015250565b600061327860148361234b565b915061328382613242565b602082019050919050565b600060208201905081810360008301526132a78161326b565b9050919050565b7f45524332303a206d696e7420746f20746865207a65726f206164647265737300600082015250565b60006132e4601f8361234b565b91506132ef826132ae565b602082019050919050565b60006020820190508181036000830152613313816132d7565b9050919050565b7f45524332303a206275726e2066726f6d20746865207a65726f2061646472657360008201527f7300000000000000000000000000000000000000000000000000000000000000602082015250565b600061337660218361234b565b91506133818261331a565b604082019050919050565b600060208201905081810360008301526133a581613369565b9050919050565b7f45524332303a206275726e20616d6f756e7420657863656564732062616c616e60008201527f6365000000000000000000000000000000000000000000000000000000000000602082015250565b600061340860228361234b565b9150613413826133ac565b604082019050919050565b60006020820190508181036000830152613437816133fb565b9050919050565b600061344982612459565b915061345483612459565b925082821015613467576134666128d9565b5b828203905092915050565b7f5061757361626c653a2070617573656400000000000000000000000000000000600082015250565b60006134a860108361234b565b91506134b382613472565b602082019050919050565b600060208201905081810360008301526134d78161349b565b9050919050565b60006134e982612459565b91506134f483612459565b9250817fffffffffffffffffffffffffffffffffffffffffffffffffffffffffffffffff048311821515161561352d5761352c6128d9565b5b828202905092915050565b7f4e487b7100000000000000000000000000000000000000000000000000000000600052604160045260246000fd5b7f4e487b7100000000000000000000000000000000000000000000000000000000600052603260045260246000fd5b60006135a182612459565b915060008214156135b5576135b46128d9565b5b600182039050919050565b7f537472696e67733a20686578206c656e67746820696e73756666696369656e74600082015250565b60006135f660208361234b565b9150613601826135c0565b602082019050919050565b60006020820190508181036000830152613625816135e9565b9050919050565b7f4e487b7100000000000000000000000000000000000000000000000000000000600052603160045260246000fdfea26469706673582212206486537ffb75bf760e101cc65dce2b95fff3b6d086c984b4ffc1fb0ca6fa2ea564736f6c634300080b0033",
  "immutableReferences": {},
  "source": "// SPDX-License-Identifier: MIT\n\npragma solidity ^0.8.0;\n\nimport \"../../node_modules/@openzeppelin/contracts/token/ERC20/ERC20.sol\";\nimport \"../../node_modules/@openzeppelin/contracts/token/ERC20/extensions/ERC20Burnable.sol\";\nimport \"../../node_modules/@openzeppelin/contracts/token/ERC20/extensions/ERC20Pausable.sol\";\nimport \"../../node_modules/@openzeppelin/contracts/access/AccessControlEnumerable.sol\";\nimport \"../../node_modules/@openzeppelin/contracts/utils/Context.sol\";\n\n/**\n * @dev {ERC20} token, including:\n *\n *  - ability for holders to burn (destroy) their tokens\n *  - a minter role that allows for token minting (creation)\n *  - a pauser role that allows to stop all token transfers\n *\n * This contract uses {AccessControl} to lock permissioned functions using the\n * different roles - head to its documentation for details.\n *\n * The account that deploys the contract will be granted the minter and pauser\n * roles, as well as the default admin role, which will let it grant both minter\n * and pauser roles to other accounts.\n */\ncontract YouWhoUSD is\n    Context,\n    AccessControlEnumerable,\n    ERC20Burnable,\n    ERC20Pausable\n{\n    bytes32 public constant MINTER_ROLE = keccak256(\"MINTER_ROLE\");\n    bytes32 public constant PAUSER_ROLE = keccak256(\"PAUSER_ROLE\");\n    bytes32 public constant CAP_ROLE = keccak256(\"CAP_ROLE\");\n    uint256 private _cap;\n\n    /**\n     * @dev Grants `DEFAULT_ADMIN_ROLE`, `MINTER_ROLE` and `PAUSER_ROLE` to the\n     * account that deploys the contract.\n     *\n     * See {ERC20-constructor}.\n     */\n    constructor() ERC20(\"youwho USD\", \"YOUUSD\") {\n        _mint(_msgSender(), 1000000000 * (10**uint256(decimals())));\n        // _mint(_1, 10000000 * (10**uint256(decimals())));\n        _setupRole(DEFAULT_ADMIN_ROLE, _msgSender());\n        _setupRole(MINTER_ROLE, _msgSender());\n        _setupRole(PAUSER_ROLE, _msgSender());\n        _setupRole(CAP_ROLE, _msgSender());\n        // require(cap_ > 0, \"ERC20Capped: cap is 0\");\n        _cap = 1000000000000 * (10**uint256(decimals()));\n        // _cap = cap_;\n    }\n\n    function cap() public view virtual returns (uint256) {\n        return _cap;\n    }\n\n    function changeCap(uint256 newCap) external {\n        require(hasRole(CAP_ROLE, _msgSender()),\"ERC20PresetMinterPauser: must have cap role to change cap\");\n        require(ERC20.totalSupply() <= newCap,\"ERC20Capped: new cap cant be less than current total supply\");\n        _cap = newCap;\n    }\n\n    /**\n     * @dev Creates `amount` new tokens for `to`.\n     *\n     * See {ERC20-_mint}.\n     *\n     * Requirements:\n     *\n     * - the caller must have the `MINTER_ROLE`.\n     */\n    function mint(address to, uint256 amount) public virtual {\n        require(hasRole(MINTER_ROLE, _msgSender()),\"ERC20PresetMinterPauser: must have minter role to mint\");\n        require(ERC20.totalSupply() + amount <= cap(),\"ERC20Capped: cap exceeded\");\n        _mint(to, amount);\n    }\n\n    /**\n     * @dev Pauses all token transfers.\n     *\n     * See {ERC20Pausable} and {Pausable-_pause}.\n     *\n     * Requirements:\n     *\n     * - the caller must have the `PAUSER_ROLE`.\n     */\n    function pause() public virtual {\n        require(hasRole(PAUSER_ROLE, _msgSender()),\"ERC20PresetMinterPauser: must have pauser role to pause\");\n        _pause();\n    }\n\n    /**\n     * @dev Unpauses all token transfers.\n     *\n     * See {ERC20Pausable} and {Pausable-_unpause}.\n     *\n     * Requirements:\n     *\n     * - the caller must have the `PAUSER_ROLE`.\n     */\n    function unpause() public virtual {\n        require(hasRole(PAUSER_ROLE, _msgSender()),\"ERC20PresetMinterPauser: must have pauser role to unpause\");\n        _unpause();\n    }\n\n    function _beforeTokenTransfer(address from,address to,uint256 amount) internal virtual override(ERC20, ERC20Pausable) {\n        super._beforeTokenTransfer(from, to, amount);\n    }\n}\n",
  "sourcePath": "C:\\Users\\seree\\Documents\\webdev\\wip\\serve-demo-avax\\src\\contracts\\YouWhoUSD.sol",
  "compiler": {
    "name": "solc",
    "version": "0.8.11+commit.d7f03943.Emscripten.clang"
  },
  "schemaVersion": "3.4.4",
  "updatedAt": "2022-01-24T07:00:48.828Z",
  "devdoc": {
    "details": "{ERC20} token, including:  - ability for holders to burn (destroy) their tokens  - a minter role that allows for token minting (creation)  - a pauser role that allows to stop all token transfers This contract uses {AccessControl} to lock permissioned functions using the different roles - head to its documentation for details. The account that deploys the contract will be granted the minter and pauser roles, as well as the default admin role, which will let it grant both minter and pauser roles to other accounts.",
    "kind": "dev",
    "methods": {
      "allowance(address,address)": {
        "details": "See {IERC20-allowance}."
      },
      "approve(address,uint256)": {
        "details": "See {IERC20-approve}. Requirements: - `spender` cannot be the zero address."
      },
      "balanceOf(address)": {
        "details": "See {IERC20-balanceOf}."
      },
      "burn(uint256)": {
        "details": "Destroys `amount` tokens from the caller. See {ERC20-_burn}."
      },
      "burnFrom(address,uint256)": {
        "details": "Destroys `amount` tokens from `account`, deducting from the caller's allowance. See {ERC20-_burn} and {ERC20-allowance}. Requirements: - the caller must have allowance for ``accounts``'s tokens of at least `amount`."
      },
      "constructor": {
        "details": "Grants `DEFAULT_ADMIN_ROLE`, `MINTER_ROLE` and `PAUSER_ROLE` to the account that deploys the contract. See {ERC20-constructor}."
      },
      "decimals()": {
        "details": "Returns the number of decimals used to get its user representation. For example, if `decimals` equals `2`, a balance of `505` tokens should be displayed to a user as `5.05` (`505 / 10 ** 2`). Tokens usually opt for a value of 18, imitating the relationship between Ether and Wei. This is the value {ERC20} uses, unless this function is overridden; NOTE: This information is only used for _display_ purposes: it in no way affects any of the arithmetic of the contract, including {IERC20-balanceOf} and {IERC20-transfer}."
      },
      "decreaseAllowance(address,uint256)": {
        "details": "Atomically decreases the allowance granted to `spender` by the caller. This is an alternative to {approve} that can be used as a mitigation for problems described in {IERC20-approve}. Emits an {Approval} event indicating the updated allowance. Requirements: - `spender` cannot be the zero address. - `spender` must have allowance for the caller of at least `subtractedValue`."
      },
      "getRoleAdmin(bytes32)": {
        "details": "Returns the admin role that controls `role`. See {grantRole} and {revokeRole}. To change a role's admin, use {_setRoleAdmin}."
      },
      "getRoleMember(bytes32,uint256)": {
        "details": "Returns one of the accounts that have `role`. `index` must be a value between 0 and {getRoleMemberCount}, non-inclusive. Role bearers are not sorted in any particular way, and their ordering may change at any point. WARNING: When using {getRoleMember} and {getRoleMemberCount}, make sure you perform all queries on the same block. See the following https://forum.openzeppelin.com/t/iterating-over-elements-on-enumerableset-in-openzeppelin-contracts/2296[forum post] for more information."
      },
      "getRoleMemberCount(bytes32)": {
        "details": "Returns the number of accounts that have `role`. Can be used together with {getRoleMember} to enumerate all bearers of a role."
      },
      "grantRole(bytes32,address)": {
        "details": "Grants `role` to `account`. If `account` had not been already granted `role`, emits a {RoleGranted} event. Requirements: - the caller must have ``role``'s admin role."
      },
      "hasRole(bytes32,address)": {
        "details": "Returns `true` if `account` has been granted `role`."
      },
      "increaseAllowance(address,uint256)": {
        "details": "Atomically increases the allowance granted to `spender` by the caller. This is an alternative to {approve} that can be used as a mitigation for problems described in {IERC20-approve}. Emits an {Approval} event indicating the updated allowance. Requirements: - `spender` cannot be the zero address."
      },
      "mint(address,uint256)": {
        "details": "Creates `amount` new tokens for `to`. See {ERC20-_mint}. Requirements: - the caller must have the `MINTER_ROLE`."
      },
      "name()": {
        "details": "Returns the name of the token."
      },
      "pause()": {
        "details": "Pauses all token transfers. See {ERC20Pausable} and {Pausable-_pause}. Requirements: - the caller must have the `PAUSER_ROLE`."
      },
      "paused()": {
        "details": "Returns true if the contract is paused, and false otherwise."
      },
      "renounceRole(bytes32,address)": {
        "details": "Revokes `role` from the calling account. Roles are often managed via {grantRole} and {revokeRole}: this function's purpose is to provide a mechanism for accounts to lose their privileges if they are compromised (such as when a trusted device is misplaced). If the calling account had been revoked `role`, emits a {RoleRevoked} event. Requirements: - the caller must be `account`."
      },
      "revokeRole(bytes32,address)": {
        "details": "Revokes `role` from `account`. If `account` had been granted `role`, emits a {RoleRevoked} event. Requirements: - the caller must have ``role``'s admin role."
      },
      "supportsInterface(bytes4)": {
        "details": "See {IERC165-supportsInterface}."
      },
      "symbol()": {
        "details": "Returns the symbol of the token, usually a shorter version of the name."
      },
      "totalSupply()": {
        "details": "See {IERC20-totalSupply}."
      },
      "transfer(address,uint256)": {
        "details": "See {IERC20-transfer}. Requirements: - `recipient` cannot be the zero address. - the caller must have a balance of at least `amount`."
      },
      "transferFrom(address,address,uint256)": {
        "details": "See {IERC20-transferFrom}. Emits an {Approval} event indicating the updated allowance. This is not required by the EIP. See the note at the beginning of {ERC20}. Requirements: - `sender` and `recipient` cannot be the zero address. - `sender` must have a balance of at least `amount`. - the caller must have allowance for ``sender``'s tokens of at least `amount`."
      },
      "unpause()": {
        "details": "Unpauses all token transfers. See {ERC20Pausable} and {Pausable-_unpause}. Requirements: - the caller must have the `PAUSER_ROLE`."
      }
    },
    "version": 1
  },
  "userdoc": {
    "kind": "user",
    "methods": {},
    "version": 1
  }
}