{
  "contractName": "YouWhoDapp",
  "abi": [
    {
      "inputs": [
        {
          "internalType": "address",
          "name": "_you",
          "type": "address"
        },
        {
          "internalType": "contract YouWho",
          "name": "you_",
          "type": "address"
        },
        {
          "internalType": "address",
          "name": "_youusd",
          "type": "address"
        }
      ],
      "stateMutability": "nonpayable",
      "type": "constructor"
    },
    {
      "anonymous": false,
      "inputs": [
        {
          "indexed": true,
          "internalType": "address",
          "name": "user",
          "type": "address"
        },
        {
          "indexed": false,
          "internalType": "uint256",
          "name": "youAmount",
          "type": "uint256"
        },
        {
          "indexed": false,
          "internalType": "uint256",
          "name": "timeStart",
          "type": "uint256"
        }
      ],
      "name": "DepositStake",
      "type": "event"
    },
    {
      "anonymous": false,
      "inputs": [
        {
          "indexed": true,
          "internalType": "address",
          "name": "user",
          "type": "address"
        },
        {
          "indexed": true,
          "internalType": "address",
          "name": "provider",
          "type": "address"
        },
        {
          "indexed": false,
          "internalType": "bytes32",
          "name": "booking",
          "type": "bytes32"
        },
        {
          "indexed": false,
          "internalType": "uint256",
          "name": "amount",
          "type": "uint256"
        },
        {
          "indexed": false,
          "internalType": "bytes32",
          "name": "ticker",
          "type": "bytes32"
        },
        {
          "indexed": false,
          "internalType": "uint256",
          "name": "amountYou",
          "type": "uint256"
        },
        {
          "indexed": false,
          "internalType": "uint256",
          "name": "rating",
          "type": "uint256"
        },
        {
          "indexed": false,
          "internalType": "uint256",
          "name": "fee",
          "type": "uint256"
        }
      ],
      "name": "PaymentDone",
      "type": "event"
    },
    {
      "anonymous": false,
      "inputs": [
        {
          "indexed": true,
          "internalType": "address",
          "name": "provider",
          "type": "address"
        },
        {
          "indexed": false,
          "internalType": "bytes32",
          "name": "booking",
          "type": "bytes32"
        },
        {
          "indexed": false,
          "internalType": "uint256",
          "name": "rating",
          "type": "uint256"
        },
        {
          "indexed": false,
          "internalType": "uint256",
          "name": "amountYou",
          "type": "uint256"
        }
      ],
      "name": "ReviewedUser",
      "type": "event"
    },
    {
      "anonymous": false,
      "inputs": [
        {
          "indexed": true,
          "internalType": "bytes32",
          "name": "role",
          "type": "bytes32"
        },
        {
          "indexed": true,
          "internalType": "bytes32",
          "name": "previousAdminRole",
          "type": "bytes32"
        },
        {
          "indexed": true,
          "internalType": "bytes32",
          "name": "newAdminRole",
          "type": "bytes32"
        }
      ],
      "name": "RoleAdminChanged",
      "type": "event"
    },
    {
      "anonymous": false,
      "inputs": [
        {
          "indexed": true,
          "internalType": "bytes32",
          "name": "role",
          "type": "bytes32"
        },
        {
          "indexed": true,
          "internalType": "address",
          "name": "account",
          "type": "address"
        },
        {
          "indexed": true,
          "internalType": "address",
          "name": "sender",
          "type": "address"
        }
      ],
      "name": "RoleGranted",
      "type": "event"
    },
    {
      "anonymous": false,
      "inputs": [
        {
          "indexed": true,
          "internalType": "bytes32",
          "name": "role",
          "type": "bytes32"
        },
        {
          "indexed": true,
          "internalType": "address",
          "name": "account",
          "type": "address"
        },
        {
          "indexed": true,
          "internalType": "address",
          "name": "sender",
          "type": "address"
        }
      ],
      "name": "RoleRevoked",
      "type": "event"
    },
    {
      "anonymous": false,
      "inputs": [
        {
          "indexed": true,
          "internalType": "address",
          "name": "user",
          "type": "address"
        },
        {
          "indexed": false,
          "internalType": "uint256",
          "name": "youAmount",
          "type": "uint256"
        },
        {
          "indexed": false,
          "internalType": "uint256",
          "name": "depositTime",
          "type": "uint256"
        },
        {
          "indexed": false,
          "internalType": "uint256",
          "name": "interest",
          "type": "uint256"
        }
      ],
      "name": "WithdrawStake",
      "type": "event"
    },
    {
      "stateMutability": "payable",
      "type": "fallback"
    },
    {
      "inputs": [],
      "name": "ADMIN_ROLE",
      "outputs": [
        {
          "internalType": "bytes32",
          "name": "",
          "type": "bytes32"
        }
      ],
      "stateMutability": "view",
      "type": "function"
    },
    {
      "inputs": [],
      "name": "DEFAULT_ADMIN_ROLE",
      "outputs": [
        {
          "internalType": "bytes32",
          "name": "",
          "type": "bytes32"
        }
      ],
      "stateMutability": "view",
      "type": "function"
    },
    {
      "inputs": [],
      "name": "STAKING_ROLE",
      "outputs": [
        {
          "internalType": "bytes32",
          "name": "",
          "type": "bytes32"
        }
      ],
      "stateMutability": "view",
      "type": "function"
    },
    {
      "inputs": [],
      "name": "TOKEN_ROLE",
      "outputs": [
        {
          "internalType": "bytes32",
          "name": "",
          "type": "bytes32"
        }
      ],
      "stateMutability": "view",
      "type": "function"
    },
    {
      "inputs": [
        {
          "internalType": "bytes32",
          "name": "",
          "type": "bytes32"
        }
      ],
      "name": "claimableAddress",
      "outputs": [
        {
          "internalType": "address",
          "name": "",
          "type": "address"
        }
      ],
      "stateMutability": "view",
      "type": "function"
    },
    {
      "inputs": [
        {
          "internalType": "bytes32",
          "name": "",
          "type": "bytes32"
        }
      ],
      "name": "claimableAmount",
      "outputs": [
        {
          "internalType": "uint256",
          "name": "",
          "type": "uint256"
        }
      ],
      "stateMutability": "view",
      "type": "function"
    },
    {
      "inputs": [
        {
          "internalType": "address",
          "name": "",
          "type": "address"
        }
      ],
      "name": "depositStart",
      "outputs": [
        {
          "internalType": "uint256",
          "name": "",
          "type": "uint256"
        }
      ],
      "stateMutability": "view",
      "type": "function"
    },
    {
      "inputs": [],
      "name": "feeCollector_",
      "outputs": [
        {
          "internalType": "address",
          "name": "",
          "type": "address"
        }
      ],
      "stateMutability": "view",
      "type": "function"
    },
    {
      "inputs": [],
      "name": "fee_",
      "outputs": [
        {
          "internalType": "uint256",
          "name": "",
          "type": "uint256"
        }
      ],
      "stateMutability": "view",
      "type": "function"
    },
    {
      "inputs": [
        {
          "internalType": "bytes32",
          "name": "role",
          "type": "bytes32"
        }
      ],
      "name": "getRoleAdmin",
      "outputs": [
        {
          "internalType": "bytes32",
          "name": "",
          "type": "bytes32"
        }
      ],
      "stateMutability": "view",
      "type": "function"
    },
    {
      "inputs": [
        {
          "internalType": "bytes32",
          "name": "role",
          "type": "bytes32"
        },
        {
          "internalType": "uint256",
          "name": "index",
          "type": "uint256"
        }
      ],
      "name": "getRoleMember",
      "outputs": [
        {
          "internalType": "address",
          "name": "",
          "type": "address"
        }
      ],
      "stateMutability": "view",
      "type": "function"
    },
    {
      "inputs": [
        {
          "internalType": "bytes32",
          "name": "role",
          "type": "bytes32"
        }
      ],
      "name": "getRoleMemberCount",
      "outputs": [
        {
          "internalType": "uint256",
          "name": "",
          "type": "uint256"
        }
      ],
      "stateMutability": "view",
      "type": "function"
    },
    {
      "inputs": [
        {
          "internalType": "bytes32",
          "name": "role",
          "type": "bytes32"
        },
        {
          "internalType": "address",
          "name": "account",
          "type": "address"
        }
      ],
      "name": "grantRole",
      "outputs": [],
      "stateMutability": "nonpayable",
      "type": "function"
    },
    {
      "inputs": [
        {
          "internalType": "bytes32",
          "name": "role",
          "type": "bytes32"
        },
        {
          "internalType": "address",
          "name": "account",
          "type": "address"
        }
      ],
      "name": "hasRole",
      "outputs": [
        {
          "internalType": "bool",
          "name": "",
          "type": "bool"
        }
      ],
      "stateMutability": "view",
      "type": "function"
    },
    {
      "inputs": [],
      "name": "interest_",
      "outputs": [
        {
          "internalType": "uint256",
          "name": "",
          "type": "uint256"
        }
      ],
      "stateMutability": "view",
      "type": "function"
    },
    {
      "inputs": [
        {
          "internalType": "address",
          "name": "",
          "type": "address"
        }
      ],
      "name": "isDeposited",
      "outputs": [
        {
          "internalType": "bool",
          "name": "",
          "type": "bool"
        }
      ],
      "stateMutability": "view",
      "type": "function"
    },
    {
      "inputs": [],
      "name": "minStakeTime_",
      "outputs": [
        {
          "internalType": "uint256",
          "name": "",
          "type": "uint256"
        }
      ],
      "stateMutability": "view",
      "type": "function"
    },
    {
      "inputs": [],
      "name": "providerYouRatio_",
      "outputs": [
        {
          "internalType": "uint256",
          "name": "",
          "type": "uint256"
        }
      ],
      "stateMutability": "view",
      "type": "function"
    },
    {
      "inputs": [
        {
          "internalType": "bytes32",
          "name": "role",
          "type": "bytes32"
        },
        {
          "internalType": "address",
          "name": "account",
          "type": "address"
        }
      ],
      "name": "renounceRole",
      "outputs": [],
      "stateMutability": "nonpayable",
      "type": "function"
    },
    {
      "inputs": [
        {
          "internalType": "bytes32",
          "name": "role",
          "type": "bytes32"
        },
        {
          "internalType": "address",
          "name": "account",
          "type": "address"
        }
      ],
      "name": "revokeRole",
      "outputs": [],
      "stateMutability": "nonpayable",
      "type": "function"
    },
    {
      "inputs": [
        {
          "internalType": "bytes4",
          "name": "interfaceId",
          "type": "bytes4"
        }
      ],
      "name": "supportsInterface",
      "outputs": [
        {
          "internalType": "bool",
          "name": "",
          "type": "bool"
        }
      ],
      "stateMutability": "view",
      "type": "function"
    },
    {
      "inputs": [
        {
          "internalType": "uint256",
          "name": "",
          "type": "uint256"
        }
      ],
      "name": "switches_",
      "outputs": [
        {
          "internalType": "bool",
          "name": "",
          "type": "bool"
        }
      ],
      "stateMutability": "view",
      "type": "function"
    },
    {
      "inputs": [
        {
          "internalType": "uint256",
          "name": "",
          "type": "uint256"
        }
      ],
      "name": "tokenList",
      "outputs": [
        {
          "internalType": "bytes32",
          "name": "",
          "type": "bytes32"
        }
      ],
      "stateMutability": "view",
      "type": "function"
    },
    {
      "inputs": [
        {
          "internalType": "bytes32",
          "name": "",
          "type": "bytes32"
        }
      ],
      "name": "tokenMapping",
      "outputs": [
        {
          "internalType": "address",
          "name": "tokenAddress",
          "type": "address"
        },
        {
          "internalType": "address",
          "name": "oracleAddress",
          "type": "address"
        },
        {
          "internalType": "uint256",
          "name": "manualTokenPrice",
          "type": "uint256"
        },
        {
          "internalType": "uint256",
          "name": "manualOracleDecimals",
          "type": "uint256"
        }
      ],
      "stateMutability": "view",
      "type": "function"
    },
    {
      "inputs": [],
      "name": "youBack_",
      "outputs": [
        {
          "internalType": "uint256",
          "name": "",
          "type": "uint256"
        }
      ],
      "stateMutability": "view",
      "type": "function"
    },
    {
      "inputs": [
        {
          "internalType": "address",
          "name": "",
          "type": "address"
        }
      ],
      "name": "youBalanceOf",
      "outputs": [
        {
          "internalType": "uint256",
          "name": "",
          "type": "uint256"
        }
      ],
      "stateMutability": "view",
      "type": "function"
    },
    {
      "stateMutability": "payable",
      "type": "receive"
    },
    {
      "inputs": [
        {
          "internalType": "bytes32",
          "name": "_ticker",
          "type": "bytes32"
        },
        {
          "internalType": "address",
          "name": "_tokenAddress",
          "type": "address"
        },
        {
          "internalType": "address",
          "name": "_oracleAddress",
          "type": "address"
        },
        {
          "internalType": "uint256",
          "name": "_manualTokenPrice",
          "type": "uint256"
        },
        {
          "internalType": "uint256",
          "name": "_manualOracleDecimals",
          "type": "uint256"
        }
      ],
      "name": "addToken",
      "outputs": [],
      "stateMutability": "nonpayable",
      "type": "function"
    },
    {
      "inputs": [
        {
          "internalType": "bytes32",
          "name": "_ticker",
          "type": "bytes32"
        },
        {
          "internalType": "address",
          "name": "_tokenAddress",
          "type": "address"
        },
        {
          "internalType": "address",
          "name": "_oracleAddress",
          "type": "address"
        },
        {
          "internalType": "uint256",
          "name": "_manualTokenPrice",
          "type": "uint256"
        },
        {
          "internalType": "uint256",
          "name": "_manualOracleDecimals",
          "type": "uint256"
        }
      ],
      "name": "editToken",
      "outputs": [],
      "stateMutability": "nonpayable",
      "type": "function"
    },
    {
      "inputs": [
        {
          "internalType": "uint256",
          "name": "newValue",
          "type": "uint256"
        }
      ],
      "name": "changeFee",
      "outputs": [],
      "stateMutability": "nonpayable",
      "type": "function"
    },
    {
      "inputs": [
        {
          "internalType": "address",
          "name": "newValue",
          "type": "address"
        }
      ],
      "name": "changeFeeCollector",
      "outputs": [],
      "stateMutability": "nonpayable",
      "type": "function"
    },
    {
      "inputs": [
        {
          "internalType": "uint256",
          "name": "newValue",
          "type": "uint256"
        }
      ],
      "name": "changeYouBack",
      "outputs": [],
      "stateMutability": "nonpayable",
      "type": "function"
    },
    {
      "inputs": [
        {
          "internalType": "uint256",
          "name": "newValue",
          "type": "uint256"
        }
      ],
      "name": "changeProviderYouRatio",
      "outputs": [],
      "stateMutability": "nonpayable",
      "type": "function"
    },
    {
      "inputs": [
        {
          "internalType": "uint256",
          "name": "newValue",
          "type": "uint256"
        }
      ],
      "name": "changeMinStakeTime",
      "outputs": [],
      "stateMutability": "nonpayable",
      "type": "function"
    },
    {
      "inputs": [
        {
          "internalType": "uint256",
          "name": "newValue",
          "type": "uint256"
        }
      ],
      "name": "changeInterest",
      "outputs": [],
      "stateMutability": "nonpayable",
      "type": "function"
    },
    {
      "inputs": [
        {
          "internalType": "bool",
          "name": "payEth",
          "type": "bool"
        },
        {
          "internalType": "bool",
          "name": "payToken",
          "type": "bool"
        },
        {
          "internalType": "bool",
          "name": "deposit",
          "type": "bool"
        },
        {
          "internalType": "bool",
          "name": "review",
          "type": "bool"
        }
      ],
      "name": "changeSwitches",
      "outputs": [],
      "stateMutability": "nonpayable",
      "type": "function"
    },
    {
      "inputs": [
        {
          "internalType": "address",
          "name": "provider",
          "type": "address"
        },
        {
          "internalType": "bytes32",
          "name": "booking",
          "type": "bytes32"
        },
        {
          "internalType": "uint256",
          "name": "rating",
          "type": "uint256"
        }
      ],
      "name": "makePaymentEth",
      "outputs": [],
      "stateMutability": "payable",
      "type": "function"
    },
    {
      "inputs": [
        {
          "internalType": "address",
          "name": "provider",
          "type": "address"
        },
        {
          "internalType": "bytes32",
          "name": "booking",
          "type": "bytes32"
        },
        {
          "internalType": "uint256",
          "name": "amount",
          "type": "uint256"
        },
        {
          "internalType": "bytes32",
          "name": "ticker",
          "type": "bytes32"
        },
        {
          "internalType": "uint256",
          "name": "rating",
          "type": "uint256"
        }
      ],
      "name": "makePayment",
      "outputs": [],
      "stateMutability": "nonpayable",
      "type": "function"
    },
    {
      "inputs": [
        {
          "internalType": "uint256",
          "name": "amount",
          "type": "uint256"
        }
      ],
      "name": "depositStake",
      "outputs": [],
      "stateMutability": "nonpayable",
      "type": "function"
    },
    {
      "inputs": [],
      "name": "myStakeInterest",
      "outputs": [
        {
          "internalType": "uint256",
          "name": "interest",
          "type": "uint256"
        }
      ],
      "stateMutability": "view",
      "type": "function"
    },
    {
      "inputs": [],
      "name": "withdrawStake",
      "outputs": [],
      "stateMutability": "nonpayable",
      "type": "function"
    },
    {
      "inputs": [
        {
          "internalType": "bytes32",
          "name": "booking",
          "type": "bytes32"
        },
        {
          "internalType": "uint256",
          "name": "rating",
          "type": "uint256"
        }
      ],
      "name": "reviewClaim",
      "outputs": [],
      "stateMutability": "nonpayable",
      "type": "function"
    },
    {
      "inputs": [
        {
          "internalType": "address",
          "name": "_to",
          "type": "address"
        },
        {
          "internalType": "uint256",
          "name": "amount",
          "type": "uint256"
        },
        {
          "internalType": "bytes32",
          "name": "ticker",
          "type": "bytes32"
        }
      ],
      "name": "transferToken",
      "outputs": [],
      "stateMutability": "nonpayable",
      "type": "function"
    },
    {
      "inputs": [
        {
          "internalType": "address",
          "name": "_to",
          "type": "address"
        },
        {
          "internalType": "uint256",
          "name": "amount",
          "type": "uint256"
        }
      ],
      "name": "transferEth",
      "outputs": [],
      "stateMutability": "nonpayable",
      "type": "function"
    },
    {
      "inputs": [
        {
          "internalType": "address",
          "name": "_to",
          "type": "address"
        },
        {
          "internalType": "uint256",
          "name": "amount",
          "type": "uint256"
        }
      ],
      "name": "mintYou",
      "outputs": [],
      "stateMutability": "nonpayable",
      "type": "function"
    }
  ],
  "bytecode": "0x60806040523480156200001157600080fd5b506040516200654c3803806200654c833981810160405281019062000037919062000a66565b81600260006101000a81548173ffffffffffffffffffffffffffffffffffffffff021916908373ffffffffffffffffffffffffffffffffffffffff1602179055506200009c6000801b620000906200065560201b60201c565b6200065d60201b60201c565b620000dd7fa49807205ce4d355092ef5a8a18f56e8913cf4a201fbe287825b095693c21775620000d16200065560201b60201c565b6200065d60201b60201c565b6200011e7fa7197c38d9c4c7450c7f2cd20d0a17cbe7c344190d6c82a6b49a146e62439ae4620001126200065560201b60201c565b6200065d60201b60201c565b6200015f7ff18246d2e788c2a885ec6aeee43fc7c89077b8b7a1e52e99f27f5889e429e2f5620001536200065560201b60201c565b6200065d60201b60201c565b61012c600b8190555030600c60006101000a81548173ffffffffffffffffffffffffffffffffffffffff021916908373ffffffffffffffffffffffffffffffffffffffff1602179055506103e8600e819055506103e8601081905550603c600f819055506103e8600d819055506040518060800160405280600115151515815260200160011515151581526020016001151515158152602001600115151515815250601190600462000213929190620008eb565b5060007f594f550000000000000000000000000000000000000000000000000000000000905060405180608001604052808573ffffffffffffffffffffffffffffffffffffffff168152602001600073ffffffffffffffffffffffffffffffffffffffff16815260200166038d7ea4c68000815260200160128152506009600083815260200190815260200160002060008201518160000160006101000a81548173ffffffffffffffffffffffffffffffffffffffff021916908373ffffffffffffffffffffffffffffffffffffffff16021790555060208201518160010160006101000a81548173ffffffffffffffffffffffffffffffffffffffff021916908373ffffffffffffffffffffffffffffffffffffffff1602179055506040820151816002015560608201518160030155905050600a81908060018154018082558091505060019003906000526020600020016000909190919091505560007f4156415800000000000000000000000000000000000000000000000000000000905060405180608001604052803073ffffffffffffffffffffffffffffffffffffffff168152602001735498bb86bc934c8d34fda08e81d444153d0d06ad73ffffffffffffffffffffffffffffffffffffffff16815260200164016d04d300815260200160088152506009600083815260200190815260200160002060008201518160000160006101000a81548173ffffffffffffffffffffffffffffffffffffffff021916908373ffffffffffffffffffffffffffffffffffffffff16021790555060208201518160010160006101000a81548173ffffffffffffffffffffffffffffffffffffffff021916908373ffffffffffffffffffffffffffffffffffffffff1602179055506040820151816002015560608201518160030155905050600a81908060018154018082558091505060019003906000526020600020016000909190919091505560007f594f555553440000000000000000000000000000000000000000000000000000905060405180608001604052808573ffffffffffffffffffffffffffffffffffffffff168152602001737898accc83587c3c55116c5230c17a6cd9c71bad73ffffffffffffffffffffffffffffffffffffffff1681526020016305f5e100815260200160088152506009600083815260200190815260200160002060008201518160000160006101000a81548173ffffffffffffffffffffffffffffffffffffffff021916908373ffffffffffffffffffffffffffffffffffffffff16021790555060208201518160010160006101000a81548173ffffffffffffffffffffffffffffffffffffffff021916908373ffffffffffffffffffffffffffffffffffffffff1602179055506040820151816002015560608201518160030155905050600a81908060018154018082558091505060019003906000526020600020016000909190919091505550505050505062000ac2565b600033905090565b6200066f82826200067360201b60201c565b5050565b6200068a8282620006bb60201b6200353b1760201c565b620006b68160016000858152602001908152602001600020620007ac60201b6200361b1790919060201c565b505050565b620006cd8282620007e460201b60201c565b620007a857600160008084815260200190815260200160002060000160008373ffffffffffffffffffffffffffffffffffffffff1673ffffffffffffffffffffffffffffffffffffffff16815260200190815260200160002060006101000a81548160ff0219169083151502179055506200074d6200065560201b60201c565b73ffffffffffffffffffffffffffffffffffffffff168173ffffffffffffffffffffffffffffffffffffffff16837f2f8788117e7eff1d82e926ec794901d17c78024a50270940304540a733656f0d60405160405180910390a45b5050565b6000620007dc836000018373ffffffffffffffffffffffffffffffffffffffff1660001b6200084e60201b60201c565b905092915050565b600080600084815260200190815260200160002060000160008373ffffffffffffffffffffffffffffffffffffffff1673ffffffffffffffffffffffffffffffffffffffff16815260200190815260200160002060009054906101000a900460ff16905092915050565b6000620008628383620008c860201b60201c565b620008bd578260000182908060018154018082558091505060019003906000526020600020016000909190919091505582600001805490508360010160008481526020019081526020016000208190555060019050620008c2565b600090505b92915050565b600080836001016000848152602001908152602001600020541415905092915050565b82805482825590600052602060002090601f01602090048101928215620009855791602002820160005b838211156200095457835183826101000a81548160ff021916908315150217905550926020019260010160208160000104928301926001030262000915565b8015620009835782816101000a81549060ff021916905560010160208160000104928301926001030262000954565b505b50905062000994919062000998565b5090565b5b80821115620009b357600081600090555060010162000999565b5090565b600080fd5b600073ffffffffffffffffffffffffffffffffffffffff82169050919050565b6000620009e982620009bc565b9050919050565b620009fb81620009dc565b811462000a0757600080fd5b50565b60008151905062000a1b81620009f0565b92915050565b600062000a2e82620009dc565b9050919050565b62000a408162000a21565b811462000a4c57600080fd5b50565b60008151905062000a608162000a35565b92915050565b60008060006060848603121562000a825762000a81620009b7565b5b600062000a928682870162000a0a565b935050602062000aa58682870162000a4f565b925050604062000ab88682870162000a0a565b9150509250925092565b615a7a8062000ad26000396000f3fe60806040526004361061026b5760003560e01c80638301057b11610144578063ca15c873116100b6578063e9bb84c21161007a578063e9bb84c214610972578063eb2d070b1461099b578063eda2a715146109c4578063f33b480d146109ed578063fa240f6214610a16578063ff87930a14610a4157610272565b8063ca15c8731461088d578063cb82cc8f146108ca578063ccfdeb0a146108f3578063d547741f1461091e578063e256e78a1461094757610272565b80639ead7222116101085780639ead72221461079e5780639f783dae146107db578063a217fddf14610804578063bed9d8611461082f578063c1d1218214610846578063c8e176361461086257610272565b80638301057b146106a55780639010d07c146106d0578063910528161461070d57806391d14854146107385780639245290d1461077557610272565b806338b17a67116101dd5780635a63561c116101a15780635a63561c1461056e5780635f5ba7bc14610597578063667cb4ba146105d45780636a1db1bf14610614578063737320241461063d57806375b238fc1461067a57610272565b806338b17a671461048b5780633d9ce2ed146104b45780634cde06e8146104dd5780634e5bd7431461051a57806352e17a4c1461054357610272565b806314903a111161022f57806314903a111461036b57806314c07be51461039657806315836ade146103bf578063248a9ca3146103fc5780632f2ff15d1461043957806336568abe1461046257610272565b806301ffc9a7146102745780630a3c8971146102b15780630e59db0a146102da578063130d4cbc146103035780631410e9ff1461032e57610272565b3661027257005b005b34801561028057600080fd5b5061029b60048036038101906102969190613ebb565b610a7e565b6040516102a89190613f03565b60405180910390f35b3480156102bd57600080fd5b506102d860048036038101906102d39190613f54565b610af8565b005b3480156102e657600080fd5b5061030160048036038101906102fc9190613fad565b610b72565b005b34801561030f57600080fd5b50610318610c2a565b6040516103259190614023565b60405180910390f35b34801561033a57600080fd5b5061035560048036038101906103509190613f54565b610d93565b6040516103629190613f03565b60405180910390f35b34801561037757600080fd5b50610380610dc7565b60405161038d9190614023565b60405180910390f35b3480156103a257600080fd5b506103bd60048036038101906103b891906140d2565b610dcd565b005b3480156103cb57600080fd5b506103e660048036038101906103e1919061414d565b610fcc565b6040516103f39190614023565b60405180910390f35b34801561040857600080fd5b50610423600480360381019061041e919061414d565b610fe4565b6040516104309190614189565b60405180910390f35b34801561044557600080fd5b50610460600480360381019061045b91906141a4565b611003565b005b34801561046e57600080fd5b50610489600480360381019061048491906141a4565b61102c565b005b34801561049757600080fd5b506104b260048036038101906104ad9190613f54565b6110af565b005b3480156104c057600080fd5b506104db60048036038101906104d691906140d2565b611129565b005b3480156104e957600080fd5b5061050460048036038101906104ff919061414d565b6112ce565b60405161051191906141f3565b60405180910390f35b34801561052657600080fd5b50610541600480360381019061053c919061420e565b611301565b005b34801561054f57600080fd5b506105586113e7565b6040516105659190614023565b60405180910390f35b34801561057a57600080fd5b5061059560048036038101906105909190613f54565b6113ed565b005b3480156105a357600080fd5b506105be60048036038101906105b9919061424e565b611467565b6040516105cb9190614023565b60405180910390f35b3480156105e057600080fd5b506105fb60048036038101906105f6919061414d565b61147f565b60405161060b949392919061427b565b60405180910390f35b34801561062057600080fd5b5061063b60048036038101906106369190613f54565b6114ef565b005b34801561064957600080fd5b50610664600480360381019061065f919061424e565b611569565b6040516106719190613f03565b60405180910390f35b34801561068657600080fd5b5061068f611589565b60405161069c9190614189565b60405180910390f35b3480156106b157600080fd5b506106ba6115ad565b6040516106c79190614189565b60405180910390f35b3480156106dc57600080fd5b506106f760048036038101906106f291906142c0565b6115d1565b60405161070491906141f3565b60405180910390f35b34801561071957600080fd5b50610722611600565b60405161072f9190614189565b60405180910390f35b34801561074457600080fd5b5061075f600480360381019061075a91906141a4565b611624565b60405161076c9190613f03565b60405180910390f35b34801561078157600080fd5b5061079c6004803603810190610797919061424e565b61168e565b005b3480156107aa57600080fd5b506107c560048036038101906107c09190613f54565b611742565b6040516107d29190614189565b60405180910390f35b3480156107e757600080fd5b5061080260048036038101906107fd9190614300565b611766565b005b34801561081057600080fd5b5061081961191b565b6040516108269190614189565b60405180910390f35b34801561083b57600080fd5b50610844611922565b005b610860600480360381019061085b9190614353565b611dc3565b005b34801561086e57600080fd5b5061087761256d565b6040516108849190614023565b60405180910390f35b34801561089957600080fd5b506108b460048036038101906108af919061414d565b612573565b6040516108c19190614023565b60405180910390f35b3480156108d657600080fd5b506108f160048036038101906108ec9190613f54565b612597565b005b3480156108ff57600080fd5b50610908612885565b6040516109159190614023565b60405180910390f35b34801561092a57600080fd5b50610945600480360381019061094091906141a4565b61288b565b005b34801561095357600080fd5b5061095c6128b4565b60405161096991906141f3565b60405180910390f35b34801561097e57600080fd5b506109996004803603810190610994919061420e565b6128da565b005b3480156109a757600080fd5b506109c260048036038101906109bd9190613f54565b612978565b005b3480156109d057600080fd5b506109eb60048036038101906109e691906143a6565b6129f2565b005b3480156109f957600080fd5b50610a146004803603810190610a0f91906142c0565b613284565b005b348015610a2257600080fd5b50610a2b61351d565b604051610a389190614023565b60405180910390f35b348015610a4d57600080fd5b50610a686004803603810190610a63919061424e565b613523565b604051610a759190614023565b60405180910390f35b60007f5a05180f000000000000000000000000000000000000000000000000000000007bffffffffffffffffffffffffffffffffffffffffffffffffffffffff1916827bffffffffffffffffffffffffffffffffffffffffffffffffffffffff19161480610af15750610af08261364b565b5b9050919050565b610b297fa49807205ce4d355092ef5a8a18f56e8913cf4a201fbe287825b095693c21775610b246136c5565b611624565b610b68576040517f08c379a0000000000000000000000000000000000000000000000000000000008152600401610b5f906144a4565b60405180910390fd5b8060108190555050565b610ba37fa49807205ce4d355092ef5a8a18f56e8913cf4a201fbe287825b095693c21775610b9e6136c5565b611624565b610be2576040517f08c379a0000000000000000000000000000000000000000000000000000000008152600401610bd990614536565b60405180910390fd5b604051806080016040528085151515158152602001841515151581526020018315151515815260200182151515158152506011906004610c23929190613d9b565b5050505050565b600060011515600460003373ffffffffffffffffffffffffffffffffffffffff1673ffffffffffffffffffffffffffffffffffffffff16815260200190815260200160002060009054906101000a900460ff16151514610cbf576040517f08c379a0000000000000000000000000000000000000000000000000000000008152600401610cb6906145a2565b60405180910390fd5b6000600560003373ffffffffffffffffffffffffffffffffffffffff1673ffffffffffffffffffffffffffffffffffffffff1681526020019081526020016000205442610d0c91906145f1565b90506000670de0b6b3a7640000600660003373ffffffffffffffffffffffffffffffffffffffff1673ffffffffffffffffffffffffffffffffffffffff16815260200190815260200160002054600d5462305252610d6a9190614625565b610d749190614625565b610d7e91906146ae565b90508181610d8c9190614625565b9250505090565b60118181548110610da357600080fd5b9060005260206000209060209182820401919006915054906101000a900460ff1681565b600e5481565b84600073ffffffffffffffffffffffffffffffffffffffff166009600083815260200190815260200160002060000160009054906101000a900473ffffffffffffffffffffffffffffffffffffffff1673ffffffffffffffffffffffffffffffffffffffff161415610e74576040517f08c379a0000000000000000000000000000000000000000000000000000000008152600401610e6b9061472b565b60405180910390fd5b610ea57fa7197c38d9c4c7450c7f2cd20d0a17cbe7c344190d6c82a6b49a146e62439ae4610ea06136c5565b611624565b610ee4576040517f08c379a0000000000000000000000000000000000000000000000000000000008152600401610edb906147bd565b60405180910390fd5b846009600088815260200190815260200160002060000160006101000a81548173ffffffffffffffffffffffffffffffffffffffff021916908373ffffffffffffffffffffffffffffffffffffffff160217905550836009600088815260200190815260200160002060010160006101000a81548173ffffffffffffffffffffffffffffffffffffffff021916908373ffffffffffffffffffffffffffffffffffffffff160217905550826009600088815260200190815260200160002060020181905550816009600088815260200190815260200160002060030181905550505050505050565b60086020528060005260406000206000915090505481565b6000806000838152602001908152602001600020600101549050919050565b61100c82610fe4565b61101d816110186136c5565b6136cd565b611027838361376a565b505050565b6110346136c5565b73ffffffffffffffffffffffffffffffffffffffff168173ffffffffffffffffffffffffffffffffffffffff16146110a1576040517f08c379a00000000000000000000000000000000000000000000000000000000081526004016110989061484f565b60405180910390fd5b6110ab828261379e565b5050565b6110e07fa49807205ce4d355092ef5a8a18f56e8913cf4a201fbe287825b095693c217756110db6136c5565b611624565b61111f576040517f08c379a0000000000000000000000000000000000000000000000000000000008152600401611116906148e1565b60405180910390fd5b80600e8190555050565b61115a7fa7197c38d9c4c7450c7f2cd20d0a17cbe7c344190d6c82a6b49a146e62439ae46111556136c5565b611624565b611199576040517f08c379a000000000000000000000000000000000000000000000000000000000815260040161119090614973565b60405180910390fd5b60405180608001604052808573ffffffffffffffffffffffffffffffffffffffff1681526020018473ffffffffffffffffffffffffffffffffffffffff168152602001838152602001828152506009600087815260200190815260200160002060008201518160000160006101000a81548173ffffffffffffffffffffffffffffffffffffffff021916908373ffffffffffffffffffffffffffffffffffffffff16021790555060208201518160010160006101000a81548173ffffffffffffffffffffffffffffffffffffffff021916908373ffffffffffffffffffffffffffffffffffffffff1602179055506040820151816002015560608201518160030155905050600a8590806001815401808255809150506001900390600052602060002001600090919091909150555050505050565b60076020528060005260406000206000915054906101000a900473ffffffffffffffffffffffffffffffffffffffff1681565b6113156000801b6113106136c5565b611624565b611354576040517f08c379a000000000000000000000000000000000000000000000000000000000815260040161134b90614a05565b60405180910390fd5b600260009054906101000a900473ffffffffffffffffffffffffffffffffffffffff1673ffffffffffffffffffffffffffffffffffffffff166340c10f1983836040518363ffffffff1660e01b81526004016113b1929190614a25565b600060405180830381600087803b1580156113cb57600080fd5b505af11580156113df573d6000803e3d6000fd5b505050505050565b60105481565b61141e7ff18246d2e788c2a885ec6aeee43fc7c89077b8b7a1e52e99f27f5889e429e2f56114196136c5565b611624565b61145d576040517f08c379a000000000000000000000000000000000000000000000000000000000815260040161145490614ac0565b60405180910390fd5b80600d8190555050565b60066020528060005260406000206000915090505481565b60096020528060005260406000206000915090508060000160009054906101000a900473ffffffffffffffffffffffffffffffffffffffff16908060010160009054906101000a900473ffffffffffffffffffffffffffffffffffffffff16908060020154908060030154905084565b6115207fa49807205ce4d355092ef5a8a18f56e8913cf4a201fbe287825b095693c2177561151b6136c5565b611624565b61155f576040517f08c379a000000000000000000000000000000000000000000000000000000000815260040161155690614b52565b60405180910390fd5b80600b8190555050565b60046020528060005260406000206000915054906101000a900460ff1681565b7fa49807205ce4d355092ef5a8a18f56e8913cf4a201fbe287825b095693c2177581565b7fa7197c38d9c4c7450c7f2cd20d0a17cbe7c344190d6c82a6b49a146e62439ae481565b60006115f882600160008681526020019081526020016000206137d290919063ffffffff16565b905092915050565b7ff18246d2e788c2a885ec6aeee43fc7c89077b8b7a1e52e99f27f5889e429e2f581565b600080600084815260200190815260200160002060000160008373ffffffffffffffffffffffffffffffffffffffff1673ffffffffffffffffffffffffffffffffffffffff16815260200190815260200160002060009054906101000a900460ff16905092915050565b6116bf7fa49807205ce4d355092ef5a8a18f56e8913cf4a201fbe287825b095693c217756116ba6136c5565b611624565b6116fe576040517f08c379a00000000000000000000000000000000000000000000000000000000081526004016116f590614be4565b60405180910390fd5b80600c60006101000a81548173ffffffffffffffffffffffffffffffffffffffff021916908373ffffffffffffffffffffffffffffffffffffffff16021790555050565b600a818154811061175257600080fd5b906000526020600020016000915090505481565b80600073ffffffffffffffffffffffffffffffffffffffff166009600083815260200190815260200160002060000160009054906101000a900473ffffffffffffffffffffffffffffffffffffffff1673ffffffffffffffffffffffffffffffffffffffff16141561180d576040517f08c379a00000000000000000000000000000000000000000000000000000000081526004016118049061472b565b60405180910390fd5b6118216000801b61181c6136c5565b611624565b611860576040517f08c379a000000000000000000000000000000000000000000000000000000000815260040161185790614c76565b60405180910390fd5b6009600083815260200190815260200160002060000160009054906101000a900473ffffffffffffffffffffffffffffffffffffffff1673ffffffffffffffffffffffffffffffffffffffff1663a9059cbb85856040518363ffffffff1660e01b81526004016118d1929190614a25565b6020604051808303816000875af11580156118f0573d6000803e3d6000fd5b505050506040513d601f19601f820116820180604052508101906119149190614cab565b5050505050565b6000801b81565b60011515600460003373ffffffffffffffffffffffffffffffffffffffff1673ffffffffffffffffffffffffffffffffffffffff16815260200190815260200160002060009054906101000a900460ff161515146119b5576040517f08c379a00000000000000000000000000000000000000000000000000000000081526004016119ac906145a2565b60405180910390fd5b600f54600560003373ffffffffffffffffffffffffffffffffffffffff1673ffffffffffffffffffffffffffffffffffffffff1681526020019081526020016000205442611a0391906145f1565b1015611a44576040517f08c379a0000000000000000000000000000000000000000000000000000000008152600401611a3b90614d4a565b60405180910390fd5b6000600560003373ffffffffffffffffffffffffffffffffffffffff1673ffffffffffffffffffffffffffffffffffffffff1681526020019081526020016000205442611a9191906145f1565b90506000670de0b6b3a7640000600660003373ffffffffffffffffffffffffffffffffffffffff1673ffffffffffffffffffffffffffffffffffffffff16815260200190815260200160002054600d5462305252611aef9190614625565b611af99190614625565b611b0391906146ae565b905060008282611b139190614625565b90506000600660003373ffffffffffffffffffffffffffffffffffffffff1673ffffffffffffffffffffffffffffffffffffffff1681526020019081526020016000205490506000600560003373ffffffffffffffffffffffffffffffffffffffff1673ffffffffffffffffffffffffffffffffffffffff168152602001908152602001600020819055506000600660003373ffffffffffffffffffffffffffffffffffffffff1673ffffffffffffffffffffffffffffffffffffffff168152602001908152602001600020819055506000600460003373ffffffffffffffffffffffffffffffffffffffff1673ffffffffffffffffffffffffffffffffffffffff16815260200190815260200160002060006101000a81548160ff021916908315150217905550600260009054906101000a900473ffffffffffffffffffffffffffffffffffffffff1673ffffffffffffffffffffffffffffffffffffffff166340c10f1933846040518363ffffffff1660e01b8152600401611c98929190614a25565b600060405180830381600087803b158015611cb257600080fd5b505af1158015611cc6573d6000803e3d6000fd5b50505050600260009054906101000a900473ffffffffffffffffffffffffffffffffffffffff1673ffffffffffffffffffffffffffffffffffffffff1663a9059cbb33836040518363ffffffff1660e01b8152600401611d27929190614a25565b6020604051808303816000875af1158015611d46573d6000803e3d6000fd5b505050506040513d601f19601f82011682018060405250810190611d6a9190614cab565b503373ffffffffffffffffffffffffffffffffffffffff167f1340f1a8f3d456a649e1a12071dfa15655e3d09252131d0f980c3b405cc8dd2e828685604051611db593929190614d6a565b60405180910390a250505050565b6011600081548110611dd857611dd7614da1565b5b90600052602060002090602091828204019190069054906101000a900460ff16156125685764e8d4a510003411611e44576040517f08c379a0000000000000000000000000000000000000000000000000000000008152600401611e3b90614e42565b60405180910390fd5b8273ffffffffffffffffffffffffffffffffffffffff163373ffffffffffffffffffffffffffffffffffffffff161415611eb3576040517f08c379a0000000000000000000000000000000000000000000000000000000008152600401611eaa90614ed4565b60405180910390fd5b600081118015611ec4575060328111155b611f03576040517f08c379a0000000000000000000000000000000000000000000000000000000008152600401611efa90614f66565b60405180910390fd5b6000612710600b5434611f169190614625565b611f2091906146ae565b905060008134611f3091906145f1565b9050600c60009054906101000a900473ffffffffffffffffffffffffffffffffffffffff1673ffffffffffffffffffffffffffffffffffffffff166108fc839081150290604051600060405180830381858888f19350505050158015611f9a573d6000803e3d6000fd5b508473ffffffffffffffffffffffffffffffffffffffff166108fc829081150290604051600060405180830381858888f19350505050158015611fe1573d6000803e3d6000fd5b50600080600e54146124d357600073ffffffffffffffffffffffffffffffffffffffff16600960007f4554480000000000000000000000000000000000000000000000000000000000815260200190815260200160002060010160009054906101000a900473ffffffffffffffffffffffffffffffffffffffff1673ffffffffffffffffffffffffffffffffffffffff161461231457600960007f4554480000000000000000000000000000000000000000000000000000000000815260200190815260200160002060010160009054906101000a900473ffffffffffffffffffffffffffffffffffffffff16600360006101000a81548173ffffffffffffffffffffffffffffffffffffffff021916908373ffffffffffffffffffffffffffffffffffffffff1602179055506000600360009054906101000a900473ffffffffffffffffffffffffffffffffffffffff1673ffffffffffffffffffffffffffffffffffffffff1663feaf968c6040518163ffffffff1660e01b815260040160a060405180830381865afa15801561217d573d6000803e3d6000fd5b505050506040513d601f19601f820116820180604052508101906121a19190615013565b5050509150506000600360009054906101000a900473ffffffffffffffffffffffffffffffffffffffff1673ffffffffffffffffffffffffffffffffffffffff1663313ce5676040518163ffffffff1660e01b8152600401602060405180830381865afa158015612216573d6000803e3d6000fd5b505050506040513d601f19601f8201168201806040525081019061223a91906150c7565b9050612710600e548260ff16600a6122529190615227565b843461225e9190614625565b61226891906146ae565b6122729190614625565b61227c91906146ae565b9250600260009054906101000a900473ffffffffffffffffffffffffffffffffffffffff1673ffffffffffffffffffffffffffffffffffffffff166340c10f1933856040518363ffffffff1660e01b81526004016122db929190614a25565b600060405180830381600087803b1580156122f557600080fd5b505af1158015612309573d6000803e3d6000fd5b50505050505061244f565b612710600e54600960007f4554480000000000000000000000000000000000000000000000000000000000815260200190815260200160002060030154600a61235d9190615227565b600960007f45544800000000000000000000000000000000000000000000000000000000008152602001908152602001600020600201543461239f9190614625565b6123a991906146ae565b6123b39190614625565b6123bd91906146ae565b9050600260009054906101000a900473ffffffffffffffffffffffffffffffffffffffff1673ffffffffffffffffffffffffffffffffffffffff166340c10f1933836040518363ffffffff1660e01b815260040161241c929190614a25565b600060405180830381600087803b15801561243657600080fd5b505af115801561244a573d6000803e3d6000fd5b505050505b60105460648261245f9190614625565b61246991906146ae565b6008600087815260200190815260200160002081905550856007600087815260200190815260200160002060006101000a81548173ffffffffffffffffffffffffffffffffffffffff021916908373ffffffffffffffffffffffffffffffffffffffff1602179055505b8573ffffffffffffffffffffffffffffffffffffffff163373ffffffffffffffffffffffffffffffffffffffff167f4e6154e8230208d2d6f42cfead45eaafcc628b104c2c4059ecdc6369bd18f3d687347f4554480000000000000000000000000000000000000000000000000000000000868a600b5460405161255c96959493929190615272565b60405180910390a35050505b505050565b600f5481565b6000612590600160008481526020019081526020016000206137ec565b9050919050565b60116002815481106125ac576125ab614da1565b5b90600052602060002090602091828204019190069054906101000a900460ff16156128825760001515600460003373ffffffffffffffffffffffffffffffffffffffff1673ffffffffffffffffffffffffffffffffffffffff16815260200190815260200160002060009054906101000a900460ff16151514612664576040517f08c379a000000000000000000000000000000000000000000000000000000000815260040161265b9061531f565b60405180910390fd5b662386f26fc100008110156126ae576040517f08c379a00000000000000000000000000000000000000000000000000000000081526004016126a5906153b1565b60405180910390fd5b600260009054906101000a900473ffffffffffffffffffffffffffffffffffffffff1673ffffffffffffffffffffffffffffffffffffffff166323b872dd3330846040518463ffffffff1660e01b815260040161270d939291906153d1565b6020604051808303816000875af115801561272c573d6000803e3d6000fd5b505050506040513d601f19601f820116820180604052508101906127509190614cab565b5080600660003373ffffffffffffffffffffffffffffffffffffffff1673ffffffffffffffffffffffffffffffffffffffff1681526020019081526020016000208190555042600560003373ffffffffffffffffffffffffffffffffffffffff1673ffffffffffffffffffffffffffffffffffffffff168152602001908152602001600020819055506001600460003373ffffffffffffffffffffffffffffffffffffffff1673ffffffffffffffffffffffffffffffffffffffff16815260200190815260200160002060006101000a81548160ff0219169083151502179055503373ffffffffffffffffffffffffffffffffffffffff167f19238c17ec71e5aaac0a7b3bf40940da594ff3a233408a985b748f3f26c7fdbf8242604051612879929190615408565b60405180910390a25b50565b600b5481565b61289482610fe4565b6128a5816128a06136c5565b6136cd565b6128af838361379e565b505050565b600c60009054906101000a900473ffffffffffffffffffffffffffffffffffffffff1681565b6128ee6000801b6128e96136c5565b611624565b61292d576040517f08c379a0000000000000000000000000000000000000000000000000000000008152600401612924906154a3565b60405180910390fd5b8173ffffffffffffffffffffffffffffffffffffffff166108fc829081150290604051600060405180830381858888f19350505050158015612973573d6000803e3d6000fd5b505050565b6129a97ff18246d2e788c2a885ec6aeee43fc7c89077b8b7a1e52e99f27f5889e429e2f56129a46136c5565b611624565b6129e8576040517f08c379a00000000000000000000000000000000000000000000000000000000081526004016129df90615535565b60405180910390fd5b80600f8190555050565b81600073ffffffffffffffffffffffffffffffffffffffff166009600083815260200190815260200160002060000160009054906101000a900473ffffffffffffffffffffffffffffffffffffffff1673ffffffffffffffffffffffffffffffffffffffff161415612a99576040517f08c379a0000000000000000000000000000000000000000000000000000000008152600401612a909061472b565b60405180910390fd5b6011600181548110612aae57612aad614da1565b5b90600052602060002090602091828204019190069054906101000a900460ff161561327c57620f42408411612b18576040517f08c379a0000000000000000000000000000000000000000000000000000000008152600401612b0f906155c7565b60405180910390fd5b8573ffffffffffffffffffffffffffffffffffffffff163373ffffffffffffffffffffffffffffffffffffffff161415612b87576040517f08c379a0000000000000000000000000000000000000000000000000000000008152600401612b7e90614ed4565b60405180910390fd5b600082118015612b98575060328211155b612bd7576040517f08c379a0000000000000000000000000000000000000000000000000000000008152600401612bce90614f66565b60405180910390fd5b6000612710600b5486612bea9190614625565b612bf491906146ae565b905060008186612c0491906145f1565b90506009600086815260200190815260200160002060000160009054906101000a900473ffffffffffffffffffffffffffffffffffffffff1673ffffffffffffffffffffffffffffffffffffffff166323b872dd33600c60009054906101000a900473ffffffffffffffffffffffffffffffffffffffff16856040518463ffffffff1660e01b8152600401612c9b939291906153d1565b6020604051808303816000875af1158015612cba573d6000803e3d6000fd5b505050506040513d601f19601f82011682018060405250810190612cde9190614cab565b506009600086815260200190815260200160002060000160009054906101000a900473ffffffffffffffffffffffffffffffffffffffff1673ffffffffffffffffffffffffffffffffffffffff166323b872dd338a846040518463ffffffff1660e01b8152600401612d52939291906153d1565b6020604051808303816000875af1158015612d71573d6000803e3d6000fd5b505050506040513d601f19601f82011682018060405250810190612d959190614cab565b50600080600e541461320757600073ffffffffffffffffffffffffffffffffffffffff166009600088815260200190815260200160002060010160009054906101000a900473ffffffffffffffffffffffffffffffffffffffff1673ffffffffffffffffffffffffffffffffffffffff1614613088576009600087815260200190815260200160002060010160009054906101000a900473ffffffffffffffffffffffffffffffffffffffff16600360006101000a81548173ffffffffffffffffffffffffffffffffffffffff021916908373ffffffffffffffffffffffffffffffffffffffff1602179055506000600360009054906101000a900473ffffffffffffffffffffffffffffffffffffffff1673ffffffffffffffffffffffffffffffffffffffff1663feaf968c6040518163ffffffff1660e01b815260040160a060405180830381865afa158015612ef1573d6000803e3d6000fd5b505050506040513d601f19601f82011682018060405250810190612f159190615013565b5050509150506000600360009054906101000a900473ffffffffffffffffffffffffffffffffffffffff1673ffffffffffffffffffffffffffffffffffffffff1663313ce5676040518163ffffffff1660e01b8152600401602060405180830381865afa158015612f8a573d6000803e3d6000fd5b505050506040513d601f19601f82011682018060405250810190612fae91906150c7565b9050612710600e548260ff16600a612fc69190615227565b848c612fd29190614625565b612fdc91906146ae565b612fe69190614625565b612ff091906146ae565b9250600260009054906101000a900473ffffffffffffffffffffffffffffffffffffffff1673ffffffffffffffffffffffffffffffffffffffff166340c10f1933856040518363ffffffff1660e01b815260040161304f929190614a25565b600060405180830381600087803b15801561306957600080fd5b505af115801561307d573d6000803e3d6000fd5b505050505050613183565b612710600e546009600089815260200190815260200160002060030154600a6130b19190615227565b600960008a8152602001908152602001600020600201548a6130d39190614625565b6130dd91906146ae565b6130e79190614625565b6130f191906146ae565b9050600260009054906101000a900473ffffffffffffffffffffffffffffffffffffffff1673ffffffffffffffffffffffffffffffffffffffff166340c10f1933836040518363ffffffff1660e01b8152600401613150929190614a25565b600060405180830381600087803b15801561316a57600080fd5b505af115801561317e573d6000803e3d6000fd5b505050505b6010546064826131939190614625565b61319d91906146ae565b600860008a81526020019081526020016000208190555088600760008a815260200190815260200160002060006101000a81548173ffffffffffffffffffffffffffffffffffffffff021916908373ffffffffffffffffffffffffffffffffffffffff1602179055505b8873ffffffffffffffffffffffffffffffffffffffff163373ffffffffffffffffffffffffffffffffffffffff167f4e6154e8230208d2d6f42cfead45eaafcc628b104c2c4059ecdc6369bd18f3d68a8a8a868b600b5460405161327096959493929190615272565b60405180910390a35050505b505050505050565b601160038154811061329957613298614da1565b5b90600052602060002090602091828204019190069054906101000a900460ff1615613519576000600860008481526020019081526020016000205411613314576040517f08c379a000000000000000000000000000000000000000000000000000000000815260040161330b90615659565b60405180910390fd5b3373ffffffffffffffffffffffffffffffffffffffff166007600084815260200190815260200160002060009054906101000a900473ffffffffffffffffffffffffffffffffffffffff1673ffffffffffffffffffffffffffffffffffffffff16146133b5576040517f08c379a00000000000000000000000000000000000000000000000000000000081526004016133ac906156eb565b60405180910390fd5b6000811180156133c6575060328111155b613405576040517f08c379a00000000000000000000000000000000000000000000000000000000081526004016133fc90614f66565b60405180910390fd5b60006008600084815260200190815260200160002054905060006008600085815260200190815260200160002081905550600260009054906101000a900473ffffffffffffffffffffffffffffffffffffffff1673ffffffffffffffffffffffffffffffffffffffff166340c10f1933836040518363ffffffff1660e01b8152600401613493929190614a25565b600060405180830381600087803b1580156134ad57600080fd5b505af11580156134c1573d6000803e3d6000fd5b505050503373ffffffffffffffffffffffffffffffffffffffff167f7a402d8ab15240a871372a3897945c37813ecf921b95837448bf8edce3ded55f84848460405161350f9392919061570b565b60405180910390a2505b5050565b600d5481565b60056020528060005260406000206000915090505481565b6135458282611624565b61361757600160008084815260200190815260200160002060000160008373ffffffffffffffffffffffffffffffffffffffff1673ffffffffffffffffffffffffffffffffffffffff16815260200190815260200160002060006101000a81548160ff0219169083151502179055506135bc6136c5565b73ffffffffffffffffffffffffffffffffffffffff168173ffffffffffffffffffffffffffffffffffffffff16837f2f8788117e7eff1d82e926ec794901d17c78024a50270940304540a733656f0d60405160405180910390a45b5050565b6000613643836000018373ffffffffffffffffffffffffffffffffffffffff1660001b613801565b905092915050565b60007f7965db0b000000000000000000000000000000000000000000000000000000007bffffffffffffffffffffffffffffffffffffffffffffffffffffffff1916827bffffffffffffffffffffffffffffffffffffffffffffffffffffffff191614806136be57506136bd82613871565b5b9050919050565b600033905090565b6136d78282611624565b613766576136fc8173ffffffffffffffffffffffffffffffffffffffff1660146138db565b61370a8360001c60206138db565b60405160200161371b929190615854565b6040516020818303038152906040526040517f08c379a000000000000000000000000000000000000000000000000000000000815260040161375d91906158d8565b60405180910390fd5b5050565b613774828261353b565b613799816001600085815260200190815260200160002061361b90919063ffffffff16565b505050565b6137a88282613b17565b6137cd8160016000858152602001908152602001600020613bf890919063ffffffff16565b505050565b60006137e18360000183613c28565b60001c905092915050565b60006137fa82600001613c53565b9050919050565b600061380d8383613c64565b61386657826000018290806001815401808255809150506001900390600052602060002001600090919091909150558260000180549050836001016000848152602001908152602001600020819055506001905061386b565b600090505b92915050565b60007f01ffc9a7000000000000000000000000000000000000000000000000000000007bffffffffffffffffffffffffffffffffffffffffffffffffffffffff1916827bffffffffffffffffffffffffffffffffffffffffffffffffffffffff1916149050919050565b6060600060028360026138ee9190614625565b6138f891906158fa565b67ffffffffffffffff81111561391157613910615950565b5b6040519080825280601f01601f1916602001820160405280156139435781602001600182028036833780820191505090505b5090507f30000000000000000000000000000000000000000000000000000000000000008160008151811061397b5761397a614da1565b5b60200101907effffffffffffffffffffffffffffffffffffffffffffffffffffffffffffff1916908160001a9053507f7800000000000000000000000000000000000000000000000000000000000000816001815181106139df576139de614da1565b5b60200101907effffffffffffffffffffffffffffffffffffffffffffffffffffffffffffff1916908160001a90535060006001846002613a1f9190614625565b613a2991906158fa565b90505b6001811115613ac9577f3031323334353637383961626364656600000000000000000000000000000000600f861660108110613a6b57613a6a614da1565b5b1a60f81b828281518110613a8257613a81614da1565b5b60200101907effffffffffffffffffffffffffffffffffffffffffffffffffffffffffffff1916908160001a905350600485901c945080613ac29061597f565b9050613a2c565b5060008414613b0d576040517f08c379a0000000000000000000000000000000000000000000000000000000008152600401613b04906159f5565b60405180910390fd5b8091505092915050565b613b218282611624565b15613bf457600080600084815260200190815260200160002060000160008373ffffffffffffffffffffffffffffffffffffffff1673ffffffffffffffffffffffffffffffffffffffff16815260200190815260200160002060006101000a81548160ff021916908315150217905550613b996136c5565b73ffffffffffffffffffffffffffffffffffffffff168173ffffffffffffffffffffffffffffffffffffffff16837ff6391f5c32d9c69d2a47ea670b442974b53935d1edc7fd64eb21e047a839171b60405160405180910390a45b5050565b6000613c20836000018373ffffffffffffffffffffffffffffffffffffffff1660001b613c87565b905092915050565b6000826000018281548110613c4057613c3f614da1565b5b9060005260206000200154905092915050565b600081600001805490509050919050565b600080836001016000848152602001908152602001600020541415905092915050565b60008083600101600084815260200190815260200160002054905060008114613d8f576000600182613cb991906145f1565b9050600060018660000180549050613cd191906145f1565b9050818114613d40576000866000018281548110613cf257613cf1614da1565b5b9060005260206000200154905080876000018481548110613d1657613d15614da1565b5b90600052602060002001819055508387600101600083815260200190815260200160002081905550505b85600001805480613d5457613d53615a15565b5b600190038181906000526020600020016000905590558560010160008681526020019081526020016000206000905560019350505050613d95565b60009150505b92915050565b82805482825590600052602060002090601f01602090048101928215613e305791602002820160005b83821115613e0157835183826101000a81548160ff0219169083151502179055509260200192600101602081600001049283019260010302613dc4565b8015613e2e5782816101000a81549060ff0219169055600101602081600001049283019260010302613e01565b505b509050613e3d9190613e41565b5090565b5b80821115613e5a576000816000905550600101613e42565b5090565b600080fd5b60007fffffffff0000000000000000000000000000000000000000000000000000000082169050919050565b613e9881613e63565b8114613ea357600080fd5b50565b600081359050613eb581613e8f565b92915050565b600060208284031215613ed157613ed0613e5e565b5b6000613edf84828501613ea6565b91505092915050565b60008115159050919050565b613efd81613ee8565b82525050565b6000602082019050613f186000830184613ef4565b92915050565b6000819050919050565b613f3181613f1e565b8114613f3c57600080fd5b50565b600081359050613f4e81613f28565b92915050565b600060208284031215613f6a57613f69613e5e565b5b6000613f7884828501613f3f565b91505092915050565b613f8a81613ee8565b8114613f9557600080fd5b50565b600081359050613fa781613f81565b92915050565b60008060008060808587031215613fc757613fc6613e5e565b5b6000613fd587828801613f98565b9450506020613fe687828801613f98565b9350506040613ff787828801613f98565b925050606061400887828801613f98565b91505092959194509250565b61401d81613f1e565b82525050565b60006020820190506140386000830184614014565b92915050565b6000819050919050565b6140518161403e565b811461405c57600080fd5b50565b60008135905061406e81614048565b92915050565b600073ffffffffffffffffffffffffffffffffffffffff82169050919050565b600061409f82614074565b9050919050565b6140af81614094565b81146140ba57600080fd5b50565b6000813590506140cc816140a6565b92915050565b600080600080600060a086880312156140ee576140ed613e5e565b5b60006140fc8882890161405f565b955050602061410d888289016140bd565b945050604061411e888289016140bd565b935050606061412f88828901613f3f565b925050608061414088828901613f3f565b9150509295509295909350565b60006020828403121561416357614162613e5e565b5b60006141718482850161405f565b91505092915050565b6141838161403e565b82525050565b600060208201905061419e600083018461417a565b92915050565b600080604083850312156141bb576141ba613e5e565b5b60006141c98582860161405f565b92505060206141da858286016140bd565b9150509250929050565b6141ed81614094565b82525050565b600060208201905061420860008301846141e4565b92915050565b6000806040838503121561422557614224613e5e565b5b6000614233858286016140bd565b925050602061424485828601613f3f565b9150509250929050565b60006020828403121561426457614263613e5e565b5b6000614272848285016140bd565b91505092915050565b600060808201905061429060008301876141e4565b61429d60208301866141e4565b6142aa6040830185614014565b6142b76060830184614014565b95945050505050565b600080604083850312156142d7576142d6613e5e565b5b60006142e58582860161405f565b92505060206142f685828601613f3f565b9150509250929050565b60008060006060848603121561431957614318613e5e565b5b6000614327868287016140bd565b935050602061433886828701613f3f565b92505060406143498682870161405f565b9150509250925092565b60008060006060848603121561436c5761436b613e5e565b5b600061437a868287016140bd565b935050602061438b8682870161405f565b925050604061439c86828701613f3f565b9150509250925092565b600080600080600060a086880312156143c2576143c1613e5e565b5b60006143d0888289016140bd565b95505060206143e18882890161405f565b94505060406143f288828901613f3f565b93505060606144038882890161405f565b925050608061441488828901613f3f565b9150509295509295909350565b600082825260208201905092915050565b7f4572726f723a20596f75206d75737420686176652061646d696e20726f6c652060008201527f746f20656469742070726f766964657220594f5520726577617264732e000000602082015250565b600061448e603d83614421565b915061449982614432565b604082019050919050565b600060208201905081810360008301526144bd81614481565b9050919050565b7f4572726f723a20596f75206d75737420686176652061646d696e20726f6c652060008201527f746f20656469742066756e6374696f6e2073776974636865732e000000000000602082015250565b6000614520603a83614421565b915061452b826144c4565b604082019050919050565b6000602082019050818103600083015261454f81614513565b9050919050565b7f4572726f722c206e6f2070726576696f7573206465706f736974000000000000600082015250565b600061458c601a83614421565b915061459782614556565b602082019050919050565b600060208201905081810360008301526145bb8161457f565b9050919050565b7f4e487b7100000000000000000000000000000000000000000000000000000000600052601160045260246000fd5b60006145fc82613f1e565b915061460783613f1e565b92508282101561461a576146196145c2565b5b828203905092915050565b600061463082613f1e565b915061463b83613f1e565b9250817fffffffffffffffffffffffffffffffffffffffffffffffffffffffffffffffff0483118215151615614674576146736145c2565b5b828202905092915050565b7f4e487b7100000000000000000000000000000000000000000000000000000000600052601260045260246000fd5b60006146b982613f1e565b91506146c483613f1e565b9250826146d4576146d361467f565b5b828204905092915050565b7f546f6b656e20646f6573206e6f74206578697374000000000000000000000000600082015250565b6000614715601483614421565b9150614720826146df565b602082019050919050565b6000602082019050818103600083015261474481614708565b9050919050565b7f4572726f723a20596f75206d757374206861766520746f6b656e20726f6c652060008201527f746f206564697420746f6b656e732e0000000000000000000000000000000000602082015250565b60006147a7602f83614421565b91506147b28261474b565b604082019050919050565b600060208201905081810360008301526147d68161479a565b9050919050565b7f416363657373436f6e74726f6c3a2063616e206f6e6c792072656e6f756e636560008201527f20726f6c657320666f722073656c660000000000000000000000000000000000602082015250565b6000614839602f83614421565b9150614844826147dd565b604082019050919050565b600060208201905081810360008301526148688161482c565b9050919050565b7f4572726f723a20596f75206d75737420686176652061646d696e20726f6c652060008201527f746f2065646974207573657220594f5520726577617264732e00000000000000602082015250565b60006148cb603983614421565b91506148d68261486f565b604082019050919050565b600060208201905081810360008301526148fa816148be565b9050919050565b7f4572726f723a20596f75206d757374206861766520746f6b656e20726f6c652060008201527f746f2061646420746f6b656e732e000000000000000000000000000000000000602082015250565b600061495d602e83614421565b915061496882614901565b604082019050919050565b6000602082019050818103600083015261498c81614950565b9050919050565b7f4572726f723a20596f75206d75737420686176652073757065722061646d696e60008201527f20726f6c6520746f206d696e7420594f5520746f6b656e732e00000000000000602082015250565b60006149ef603983614421565b91506149fa82614993565b604082019050919050565b60006020820190508181036000830152614a1e816149e2565b9050919050565b6000604082019050614a3a60008301856141e4565b614a476020830184614014565b9392505050565b7f4572726f723a20596f75206d7573742068617665207374616b696e6720726f6c60008201527f6520746f20656469742025206170792e00000000000000000000000000000000602082015250565b6000614aaa603083614421565b9150614ab582614a4e565b604082019050919050565b60006020820190508181036000830152614ad981614a9d565b9050919050565b7f4572726f723a20596f75206d75737420686176652061646d696e20726f6c652060008201527f746f2065646974206665652e0000000000000000000000000000000000000000602082015250565b6000614b3c602c83614421565b9150614b4782614ae0565b604082019050919050565b60006020820190508181036000830152614b6b81614b2f565b9050919050565b7f4572726f723a20596f75206d75737420686176652061646d696e20726f6c652060008201527f746f206564697420636f6c6c6563746f7220616464726573732e000000000000602082015250565b6000614bce603a83614421565b9150614bd982614b72565b604082019050919050565b60006020820190508181036000830152614bfd81614bc1565b9050919050565b7f4572726f723a20596f75206d75737420686176652073757065722061646d696e60008201527f20726f6c6520746f207472616e7366657220746f6b656e732e00000000000000602082015250565b6000614c60603983614421565b9150614c6b82614c04565b604082019050919050565b60006020820190508181036000830152614c8f81614c53565b9050919050565b600081519050614ca581613f81565b92915050565b600060208284031215614cc157614cc0613e5e565b5b6000614ccf84828501614c96565b91505092915050565b7f4572726f722c207761697420666f72206d696e696d756d207374616b696e672060008201527f6475726174696f6e206265666f7265207769746864726177696e670000000000602082015250565b6000614d34603b83614421565b9150614d3f82614cd8565b604082019050919050565b60006020820190508181036000830152614d6381614d27565b9050919050565b6000606082019050614d7f6000830186614014565b614d8c6020830185614014565b614d996040830184614014565b949350505050565b7f4e487b7100000000000000000000000000000000000000000000000000000000600052603260045260246000fd5b7f5061796d656e74206d757374206861766520612076616c7565206f766572203160008201527f3030302047776569000000000000000000000000000000000000000000000000602082015250565b6000614e2c602883614421565b9150614e3782614dd0565b604082019050919050565b60006020820190508181036000830152614e5b81614e1f565b9050919050565b7f43616e206e6f74207472616e73666572207061796d656e7420746f20796f757260008201527f73656c6600000000000000000000000000000000000000000000000000000000602082015250565b6000614ebe602483614421565b9150614ec982614e62565b604082019050919050565b60006020820190508181036000830152614eed81614eb1565b9050919050565b7f4572726f722c20726174696e67206d757374206265206265747765656e20312060008201527f2620350000000000000000000000000000000000000000000000000000000000602082015250565b6000614f50602383614421565b9150614f5b82614ef4565b604082019050919050565b60006020820190508181036000830152614f7f81614f43565b9050919050565b600069ffffffffffffffffffff82169050919050565b614fa581614f86565b8114614fb057600080fd5b50565b600081519050614fc281614f9c565b92915050565b6000819050919050565b614fdb81614fc8565b8114614fe657600080fd5b50565b600081519050614ff881614fd2565b92915050565b60008151905061500d81613f28565b92915050565b600080600080600060a0868803121561502f5761502e613e5e565b5b600061503d88828901614fb3565b955050602061504e88828901614fe9565b945050604061505f88828901614ffe565b935050606061507088828901614ffe565b925050608061508188828901614fb3565b9150509295509295909350565b600060ff82169050919050565b6150a48161508e565b81146150af57600080fd5b50565b6000815190506150c18161509b565b92915050565b6000602082840312156150dd576150dc613e5e565b5b60006150eb848285016150b2565b91505092915050565b60008160011c9050919050565b6000808291508390505b600185111561514b57808604811115615127576151266145c2565b5b60018516156151365780820291505b8081029050615144856150f4565b945061510b565b94509492505050565b6000826151645760019050615220565b816151725760009050615220565b81600181146151885760028114615192576151c1565b6001915050615220565b60ff8411156151a4576151a36145c2565b5b8360020a9150848211156151bb576151ba6145c2565b5b50615220565b5060208310610133831016604e8410600b84101617156151f65782820a9050838111156151f1576151f06145c2565b5b615220565b6152038484846001615101565b9250905081840481111561521a576152196145c2565b5b81810290505b9392505050565b600061523282613f1e565b915061523d83613f1e565b925061526a7fffffffffffffffffffffffffffffffffffffffffffffffffffffffffffffffff8484615154565b905092915050565b600060c082019050615287600083018961417a565b6152946020830188614014565b6152a1604083018761417a565b6152ae6060830186614014565b6152bb6080830185614014565b6152c860a0830184614014565b979650505050505050565b7f4572726f722c206465706f73697420616c726561647920616374697665000000600082015250565b6000615309601d83614421565b9150615314826152d3565b602082019050919050565b60006020820190508181036000830152615338816152fc565b9050919050565b7f4572726f722c206465706f736974206d757374206265203e3d20302e3031205960008201527f4f55000000000000000000000000000000000000000000000000000000000000602082015250565b600061539b602283614421565b91506153a68261533f565b604082019050919050565b600060208201905081810360008301526153ca8161538e565b9050919050565b60006060820190506153e660008301866141e4565b6153f360208301856141e4565b6154006040830184614014565b949350505050565b600060408201905061541d6000830185614014565b61542a6020830184614014565b9392505050565b7f4572726f723a20596f75206d75737420686176652073757065722061646d696e60008201527f20726f6c6520746f207472616e73666572206574682e00000000000000000000602082015250565b600061548d603683614421565b915061549882615431565b604082019050919050565b600060208201905081810360008301526154bc81615480565b9050919050565b7f4572726f723a20596f75206d7573742068617665207374616b696e6720726f6c60008201527f6520746f2065646974206d696e2e207374616b652e0000000000000000000000602082015250565b600061551f603583614421565b915061552a826154c3565b604082019050919050565b6000602082019050818103600083015261554e81615512565b9050919050565b7f5061796d656e74206d757374206861766520612076616c7565206f766572203160008201527f6d696c206261736520756e697473000000000000000000000000000000000000602082015250565b60006155b1602e83614421565b91506155bc82615555565b604082019050919050565b600060208201905081810360008301526155e0816155a4565b9050919050565b7f4572726f722c20616c726561647920636c61696d656420666f7220746869732060008201527f626f6f6b696e6700000000000000000000000000000000000000000000000000602082015250565b6000615643602783614421565b915061564e826155e7565b604082019050919050565b6000602082019050818103600083015261567281615636565b9050919050565b7f4572726f722c206f6e6c7920636c61696d61626c65206279207365727669636560008201527f2070726f7669646572206f6620626f6f6b696e67000000000000000000000000602082015250565b60006156d5603483614421565b91506156e082615679565b604082019050919050565b60006020820190508181036000830152615704816156c8565b9050919050565b6000606082019050615720600083018661417a565b61572d6020830185614014565b61573a6040830184614014565b949350505050565b600081905092915050565b7f416363657373436f6e74726f6c3a206163636f756e7420000000000000000000600082015250565b6000615783601783615742565b915061578e8261574d565b601782019050919050565b600081519050919050565b60005b838110156157c25780820151818401526020810190506157a7565b838111156157d1576000848401525b50505050565b60006157e282615799565b6157ec8185615742565b93506157fc8185602086016157a4565b80840191505092915050565b7f206973206d697373696e6720726f6c6520000000000000000000000000000000600082015250565b600061583e601183615742565b915061584982615808565b601182019050919050565b600061585f82615776565b915061586b82856157d7565b915061587682615831565b915061588282846157d7565b91508190509392505050565b6000601f19601f8301169050919050565b60006158aa82615799565b6158b48185614421565b93506158c48185602086016157a4565b6158cd8161588e565b840191505092915050565b600060208201905081810360008301526158f2818461589f565b905092915050565b600061590582613f1e565b915061591083613f1e565b9250827fffffffffffffffffffffffffffffffffffffffffffffffffffffffffffffffff03821115615945576159446145c2565b5b828201905092915050565b7f4e487b7100000000000000000000000000000000000000000000000000000000600052604160045260246000fd5b600061598a82613f1e565b9150600082141561599e5761599d6145c2565b5b600182039050919050565b7f537472696e67733a20686578206c656e67746820696e73756666696369656e74600082015250565b60006159df602083614421565b91506159ea826159a9565b602082019050919050565b60006020820190508181036000830152615a0e816159d2565b9050919050565b7f4e487b7100000000000000000000000000000000000000000000000000000000600052603160045260246000fdfea26469706673582212207cbfa32b6be8b05d264c7e7266841b8b09c6373c812e8429b5bdb00e4c612ba064736f6c634300080b0033",
  "immutableReferences": {},
  "source": "// SPDX-License-Identifier: MIT\r\n\r\npragma solidity ^0.8.0;\r\n\r\n// import \"../../node_modules/@openzeppelin/contracts/access/Ownable.sol\";\r\nimport \"../../node_modules/@openzeppelin/contracts/token/ERC20/IERC20.sol\";\r\nimport \"../../node_modules/@openzeppelin/contracts/access/AccessControlEnumerable.sol\";\r\nimport \"../../node_modules/@openzeppelin/contracts/utils/Context.sol\";\r\nimport \"../../node_modules/@chainlink/contracts/src/v0.8/interfaces/AggregatorV3Interface.sol\";\r\nimport \"./YouWho.sol\";\r\n\r\n// interface YouWhoInterface {\r\n//     function mint(address to, uint256 amount) external payable;\r\n// }\r\n\r\ncontract YouWhoDapp is     \r\n    Context,\r\n    AccessControlEnumerable {\r\n\r\n    bytes32 public constant ADMIN_ROLE = keccak256(\"ADMIN_ROLE\");\r\n    bytes32 public constant TOKEN_ROLE = keccak256(\"TOKEN_ROLE\");\r\n    bytes32 public constant STAKING_ROLE = keccak256(\"STAKING_ROLE\");\r\n\r\n    // another way of instantiating IERC20 : IERC20 public token; then assigning a token address: token = IERC20(address tokenAddress);\r\n    // YouWhoInterface YouWhoInstance = YouWhoInterface(tokenMapping[bytes32(\"YOU\")].tokenAddress);\r\n    YouWho private youToken;\r\n    AggregatorV3Interface internal priceFeed;\r\n\r\n    event PaymentDone(address indexed user, address indexed provider, bytes32 booking, uint amount, bytes32 ticker, uint amountYou, uint rating, uint fee);\r\n    event DepositStake(address indexed user, uint youAmount, uint timeStart);\r\n    event WithdrawStake(address indexed user, uint youAmount, uint depositTime, uint interest);\r\n    event ReviewedUser(address indexed provider, bytes32 booking, uint rating, uint amountYou);\r\n\r\n    struct Token {\r\n        address tokenAddress;\r\n        address oracleAddress;\r\n        uint manualTokenPrice;\r\n        uint manualOracleDecimals;\r\n    }\r\n\r\n    mapping(address => bool) public isDeposited;\r\n    mapping(address => uint) public depositStart;\r\n    mapping(address => uint) public youBalanceOf;\r\n    mapping(bytes32 => address) public claimableAddress;\r\n    mapping(bytes32 => uint) public claimableAmount;\r\n    mapping(bytes32 => Token) public tokenMapping;\r\n\r\n    bytes32[] public tokenList;\r\n    uint public fee_; // percentage as an integer, ie, input 3 for 3% fee. divide by 10000\r\n    address public feeCollector_; // address which payment fees are sent to\r\n    uint public interest_; // staking interest per annum, input as integer, ie, input 10 for 10% pa.\r\n    uint public youBack_; // amount of you returned as a % of USD value of payment, ie, input 10 for 10% back\r\n    uint public minStakeTime_; // minimum amount of time to stake before being able to withdraw, in seconds\r\n    uint public providerYouRatio_; // the amount to divide the users you rewards by, eg if 10% of user rewards then set to 100/10 = 10, if 50% then 100/50 = 2\r\n    bool[] public switches_; // switches for various functions\r\n    \r\n\r\n    constructor(address _you, YouWho you_, address _youusd) {\r\n\r\n        youToken = you_;\r\n\r\n        _setupRole(DEFAULT_ADMIN_ROLE, _msgSender());\r\n        _setupRole(ADMIN_ROLE, _msgSender());\r\n        _setupRole(TOKEN_ROLE, _msgSender());\r\n        _setupRole(STAKING_ROLE, _msgSender());\r\n\r\n        fee_ = 300; // 3% of every payment goes to owner, divide by 10000\r\n        feeCollector_ =  address(this); // address which payment fees are sent to, set to contract address at beggining\r\n        youBack_ = 1000; // 10% of each payment USD amount, you is minted to user, divide by 10000\r\n        providerYouRatio_ = 1000; // 100/ratio, eg, 100/1000 means provider will get 10% you that user gets, so if user get 300 provider will get 30\r\n        minStakeTime_ = 60; // 10 seconds just to test, use 86400 seconds for 24hrs\r\n        interest_ = 1000; // 10% pa staking interest, divide by 10000\r\n        switches_ = [ true, true, true, true ];\r\n\r\n\r\n        // set chainlink address to 0 for now\r\n        bytes32 tickerYou = bytes32(\"YOU\");\r\n        tokenMapping[tickerYou] = Token(_you, address(0), 0.001 * (10**18), 18);\r\n        tokenList.push(tickerYou);\r\n        \r\n\r\n        // // ganache ETH / USD\r\n        // bytes32 tickerEth = bytes32(\"ETH\");\r\n        // tokenMapping[tickerEth] = Token(address(this), address(0), 2000 * (10**8), 8);\r\n        // tokenList.push(tickerEth);\r\n\r\n        // // ganache mock USDC / USD\r\n        // bytes32 tickerYouusd = bytes32(\"YOUUSD\");\r\n        // tokenMapping[tickerYouusd] = Token(0xf572bb43CE1653A398950f31c5DCe6c47fA66012, address(0), 1 * (10**8), 8);\r\n        // tokenList.push(tickerYouusd);\r\n\r\n\r\n        // avalance fuji AVAX / USD\r\n        bytes32 tickerAvax = bytes32(\"AVAX\");\r\n        tokenMapping[tickerAvax] = Token(address(this), 0x5498BB86BC934c8D34FDA08E81D444153d0D06aD, 61.24 * (10**8), 8);\r\n        tokenList.push(tickerAvax);\r\n\r\n        // avalance fuji USDT / USD\r\n        bytes32 tickerYouusd = bytes32(\"YOUUSD\");\r\n        tokenMapping[tickerYouusd] = Token(_youusd, 0x7898AcCC83587C3C55116c5230C17a6Cd9C71bad, 1 * (10**8), 8);\r\n        tokenList.push(tickerYouusd);\r\n\r\n\r\n        // // rinkeby ETH / USD\r\n        // bytes32 tickerEth = bytes32(\"ETH\");\r\n        // tokenMapping[tickerEth] = Token(address(this), 0x8A753747A1Fa494EC906cE90E9f37563A8AF630e, 2000 * (10**8), 8);\r\n        // tokenList.push(tickerEth);\r\n\r\n        // // rinkeby mock USDC / USD\r\n        // bytes32 tickerYouusd = bytes32(\"YOUUSD\");\r\n        // tokenMapping[tickerYouusd] = Token(0x7c875FCdf6728E16c51CFC542341110A9DD469cC, 0xa24de01df22b63d23Ebc1882a5E3d4ec0d907bFB, 1 * (10**8), 8);\r\n        // tokenList.push(tickerYouusd);\r\n\r\n\r\n        // // mainnet ETH / USD\r\n        // bytes32 tickerEth = bytes32(\"ETH\");\r\n        // tokenMapping[tickerEth] = Token(address(this), 0x5f4eC3Df9cbd43714FE2740f5E3616155c5b8419, 2000 * (10**8), 8);\r\n        // tokenList.push(tickerEth);\r\n\r\n        // // mainnet SUSD / USD\r\n        // bytes32 tickerSusd = bytes32(\"SUSD\");\r\n        // tokenMapping[tickerSusd] = Token(0x57Ab1ec28D129707052df4dF418D58a2D46d5f51, 0xad35Bd71b9aFE6e4bDc266B345c198eaDEf9Ad94, 1 * (10**8), 8);\r\n        // tokenList.push(tickerSusd);\r\n\r\n        // // mainnet DAI / USD\r\n        // bytes32 tickerDai = bytes32(\"DAI\");\r\n        // tokenMapping[tickerDai] = Token(0x6B175474E89094C44Da98b954EedeAC495271d0F, 0xAed0c38402a5d19df6E4c03F4E2DceD6e29c1ee9, 1 * (10**8), 8);\r\n        // tokenList.push(tickerDai);\r\n\r\n        // // mainnet USDC / USD\r\n        // bytes32 tickerUsdc = bytes32(\"USDC\");\r\n        // tokenMapping[tickerUsdc] = Token(0xA0b86991c6218b36c1d19D4a2e9Eb0cE3606eB48, 0x8fFfFfd4AfB6115b954Bd326cbe7B4BA576818f6, 1 * (10**8), 8);\r\n        // tokenList.push(tickerUsdc);\r\n\r\n        // // mainnet USDT / USD\r\n        // bytes32 tickerUsdt = bytes32(\"USDT\");\r\n        // tokenMapping[tickerUsdt] = Token(0xdAC17F958D2ee523a2206206994597C13D831ec7, 0x3E7d1eAB13ad0104d2750B8863b489D65364e32D, 1 * (10**8), 8);\r\n        // tokenList.push(tickerUsdt);\r\n\r\n    }\r\n\r\n    modifier tokenExists(bytes32 ticker) {\r\n        require(tokenMapping[ticker].tokenAddress != address(0),\"Token does not exist\");\r\n        _;\r\n    }\r\n\r\n    // this function is for future proofing incase more ERC20 tokens need to be added\r\n    function addToken(bytes32 _ticker, address _tokenAddress, address _oracleAddress, uint _manualTokenPrice, uint _manualOracleDecimals ) external {\r\n        require(hasRole(TOKEN_ROLE, _msgSender()),\"Error: You must have token role to add tokens.\");\r\n        tokenMapping[_ticker] = Token(_tokenAddress, _oracleAddress, _manualTokenPrice, _manualOracleDecimals);\r\n        tokenList.push(_ticker);\r\n    }\r\n\r\n    // this function is for future proofing, for when token address and/or oracle address changes\r\n    function editToken(bytes32 _ticker, address _tokenAddress, address _oracleAddress, uint _manualTokenPrice, uint _manualOracleDecimals ) external tokenExists(_ticker) {\r\n        require(hasRole(TOKEN_ROLE, _msgSender()),\"Error: You must have token role to edit tokens.\");\r\n        tokenMapping[_ticker].tokenAddress = _tokenAddress;\r\n        tokenMapping[_ticker].oracleAddress = _oracleAddress;\r\n        tokenMapping[_ticker].manualTokenPrice = _manualTokenPrice;\r\n        tokenMapping[_ticker].manualOracleDecimals = _manualOracleDecimals;\r\n    }\r\n\r\n    // function to change fee of the YouWho payment network, newFee should be an integer, eg input 3 for 3% fee per payment transaction\r\n    function changeFee(uint newValue) external {\r\n        require(hasRole(ADMIN_ROLE, _msgSender()),\"Error: You must have admin role to edit fee.\");\r\n        fee_ = newValue;\r\n    }\r\n\r\n    // function to change feeCollector address of the YouWho payment network\r\n    function changeFeeCollector(address newValue) external {\r\n        require(hasRole(ADMIN_ROLE, _msgSender()),\"Error: You must have admin role to edit collector address.\");\r\n        feeCollector_ = newValue;\r\n    }\r\n\r\n    // function to change amount of YOU the user gets back for each payment\r\n    function changeYouBack(uint newValue) external {\r\n        require(hasRole(ADMIN_ROLE, _msgSender()),\"Error: You must have admin role to edit user YOU rewards.\");\r\n        youBack_ = newValue;\r\n    }\r\n\r\n    // function to change the amount of YOU the provider gets back when reviewing the user, if 10 then the provider gets 1/10 of YOU the user got\r\n    function changeProviderYouRatio(uint newValue) external {\r\n        require(hasRole(ADMIN_ROLE, _msgSender()),\"Error: You must have admin role to edit provider YOU rewards.\");\r\n        providerYouRatio_ = newValue;\r\n    }\r\n\r\n    // function to change the minimum YOU staking time in seconds, 1 day = 86400 seconds\r\n    function changeMinStakeTime(uint newValue) external {\r\n        require(hasRole(STAKING_ROLE, _msgSender()),\"Error: You must have staking role to edit min. stake.\");\r\n        minStakeTime_ = newValue;\r\n    }\r\n\r\n    // function to change yearly interest rate of you staking, newInterest should be an integer, eg input 10 for 10% interest pa\r\n    function changeInterest(uint newValue) external {\r\n        require(hasRole(STAKING_ROLE, _msgSender()),\"Error: You must have staking role to edit % apy.\");\r\n        interest_ = newValue;\r\n    }\r\n\r\n    // switches to turn various functions on and off\r\n    function changeSwitches(bool payEth, bool payToken, bool deposit, bool review) external {\r\n        require(hasRole(ADMIN_ROLE, _msgSender()),\"Error: You must have admin role to edit function switches.\");\r\n        switches_ = [ payEth, payToken, deposit, review ];\r\n    }\r\n\r\n    // payment router, % fee will go to contract owner\r\n    // for Eth payments, transfer value: ether to this function and it will route it to provider and owner\r\n    function makePaymentEth(address provider, bytes32 booking, uint rating) public payable {\r\n\r\n        if (switches_[0]) {\r\n\r\n            require(msg.value > 1000000000000, \"Payment must have a value over 1000 Gwei\");\r\n            require(msg.sender != provider, \"Can not transfer payment to yourself\");\r\n            require(rating > 0 && rating <= 50, \"Error, rating must be between 1 & 5\");\r\n\r\n            uint amountToOwner = msg.value * fee_ / 10000;\r\n            uint amountToProvider = msg.value - amountToOwner;\r\n\r\n            payable(feeCollector_).transfer(amountToOwner);\r\n            payable(provider).transfer(amountToProvider);\r\n\r\n            uint amountYou;\r\n            \r\n            if (youBack_ != 0) {\r\n\r\n                if (tokenMapping[bytes32(\"ETH\")].oracleAddress != address(0)) {\r\n                    priceFeed = AggregatorV3Interface(tokenMapping[bytes32(\"ETH\")].oracleAddress);\r\n                    (, int price, , , ) = priceFeed.latestRoundData();\r\n                    (uint8 decimals) = priceFeed.decimals();\r\n\r\n                    amountYou = msg.value * uint(price) / (10 ** uint(decimals)) * youBack_ / 10000; \r\n                    youToken.mint(msg.sender,amountYou);\r\n\r\n                } else {\r\n                    amountYou = msg.value * tokenMapping[bytes32(\"ETH\")].manualTokenPrice / (10 ** tokenMapping[bytes32(\"ETH\")].manualOracleDecimals) * youBack_ / 10000; \r\n                    youToken.mint(msg.sender,amountYou);\r\n                }\r\n\r\n                claimableAmount[booking] = amountYou * 100 / providerYouRatio_;\r\n                claimableAddress[booking] = provider;\r\n\r\n            } \r\n\r\n            emit PaymentDone(msg.sender, provider, booking, msg.value, bytes32(\"ETH\"), amountYou, rating, fee_);\r\n\r\n        }\r\n    }\r\n\r\n    // for ERC20 payments\r\n    function makePayment(address provider, bytes32 booking, uint amount, bytes32 ticker, uint rating) public tokenExists(ticker) {\r\n\r\n        if (switches_[1]) {\r\n\r\n            require(amount > 1000000, \"Payment must have a value over 1mil base units\");\r\n            require(msg.sender != provider, \"Can not transfer payment to yourself\");\r\n            require(rating > 0 && rating <= 50, \"Error, rating must be between 1 & 5\");\r\n\r\n            uint amountToOwner = amount * fee_ / 10000;\r\n            uint amountToProvider = amount - amountToOwner;\r\n\r\n            IERC20(tokenMapping[ticker].tokenAddress).transferFrom(msg.sender, feeCollector_, amountToOwner);\r\n            IERC20(tokenMapping[ticker].tokenAddress).transferFrom(msg.sender, provider, amountToProvider);\r\n\r\n            uint amountYou;\r\n\r\n            if (youBack_ != 0) {\r\n\r\n                if (tokenMapping[ticker].oracleAddress != address(0)) {\r\n                    priceFeed = AggregatorV3Interface(tokenMapping[ticker].oracleAddress);\r\n                    (, int price, , , ) = priceFeed.latestRoundData();\r\n                    (uint8 decimals) = priceFeed.decimals();\r\n\r\n                    amountYou = amount * uint(price) / (10 ** uint(decimals)) * youBack_ / 10000;\r\n                    youToken.mint(msg.sender,amountYou);\r\n\r\n                } else {\r\n                    amountYou = amount * tokenMapping[ticker].manualTokenPrice / (10 ** tokenMapping[ticker].manualOracleDecimals) * youBack_ / 10000;\r\n                    youToken.mint(msg.sender,amountYou);\r\n                }\r\n                \r\n                claimableAmount[booking] = amountYou * 100 / providerYouRatio_;\r\n                claimableAddress[booking] = provider;\r\n            }\r\n\r\n            emit PaymentDone(msg.sender, provider, booking, amount, ticker, amountYou, rating, fee_);\r\n\r\n        }\r\n    }\r\n\r\n    function depositStake(uint amount) public {\r\n\r\n        if (switches_[2]) {\r\n        \r\n            require(isDeposited[msg.sender] == false, 'Error, deposit already active');\r\n            require(amount >= (10**16), 'Error, deposit must be >= 0.01 YOU');\r\n\r\n            youToken.transferFrom(msg.sender,address(this),amount);\r\n\r\n            youBalanceOf[msg.sender] = amount;\r\n            depositStart[msg.sender] = block.timestamp;\r\n            isDeposited[msg.sender] = true; //activate deposit status\r\n\r\n            emit DepositStake(msg.sender, amount, block.timestamp);\r\n\r\n        }\r\n    }\r\n\r\n    function myStakeInterest() public view returns (uint interest) {\r\n        require(isDeposited[msg.sender]==true, 'Error, no previous deposit');\r\n        \r\n        //check user's hodl time\r\n        uint depositTime = block.timestamp - depositStart[msg.sender];\r\n        //calc interest per second\r\n        uint interestPerSecond = 3166802 * interest_ * youBalanceOf[msg.sender] / 1e18;\r\n        //calc accrued interest\r\n        interest = interestPerSecond * depositTime;\r\n\r\n    }\r\n\r\n    function withdrawStake() public {\r\n        require(isDeposited[msg.sender] == true, 'Error, no previous deposit');\r\n        require(block.timestamp - depositStart[msg.sender] >= minStakeTime_, 'Error, wait for minimum staking duration before withdrawing');\r\n\r\n        //check user's hodl time\r\n        uint depositTime = block.timestamp - depositStart[msg.sender];\r\n\r\n        //31668017 - interest(10% APY) per second for min. deposit amount (0.01 YOU), cuz:\r\n        //1e15(10% of 0.01 YOU) / 31577600 (seconds in 365.25 days)\r\n\r\n        //(youBalanceOf[msg.sender] / 1e16) - calc. how much higher interest will be (based on deposit), e.g.:\r\n        //for min. deposit (0.01 YOU), (youBalanceOf[msg.sender] / 1e16) = 1 (the same, 31668017/s)\r\n        //for deposit 0.02 YOU, (youBalanceOf[msg.sender] / 1e16) = 2 (doubled, (2*31668017)/s)\r\n        uint interestPerSecond = 3166802 * interest_ * youBalanceOf[msg.sender] / 1e18;\r\n        uint interestToPay = interestPerSecond * depositTime;\r\n\r\n        uint userBalance = youBalanceOf[msg.sender]; //for event\r\n        //reset depositer data\r\n        depositStart[msg.sender] = 0;\r\n        youBalanceOf[msg.sender] = 0;\r\n        isDeposited[msg.sender] = false;\r\n\r\n        youToken.mint(msg.sender, interestToPay); //interest to user\r\n        youToken.transfer(msg.sender,userBalance); //send funds back to user\r\n\r\n        emit WithdrawStake(msg.sender, userBalance, depositTime, interestToPay);\r\n    }\r\n\r\n\r\n    function reviewClaim(bytes32 booking, uint rating) public {\r\n\r\n        if (switches_[3]) {\r\n\r\n            require(claimableAmount[booking] > 0, \"Error, already claimed for this booking\");\r\n            require(claimableAddress[booking] == msg.sender, \"Error, only claimable by service provider of booking\");\r\n            require(rating > 0 && rating <= 50, \"Error, rating must be between 1 & 5\");\r\n\r\n            uint claimableNow = claimableAmount[booking];\r\n            claimableAmount[booking] = 0;\r\n            youToken.mint(msg.sender,claimableNow);\r\n\r\n            emit ReviewedUser(msg.sender, booking, rating, claimableNow); // add msg.sender & claimableNow amount to event emitted\r\n\r\n        }\r\n    }\r\n\r\n    function transferToken(address _to, uint amount, bytes32 ticker) public tokenExists(ticker) {\r\n        require(hasRole(DEFAULT_ADMIN_ROLE, _msgSender()),\"Error: You must have super admin role to transfer tokens.\");\r\n        IERC20(tokenMapping[ticker].tokenAddress).transfer(_to,amount);\r\n    }\r\n\r\n    function transferEth(address _to, uint amount) public {\r\n        require(hasRole(DEFAULT_ADMIN_ROLE, _msgSender()),\"Error: You must have super admin role to transfer eth.\");\r\n        payable(_to).transfer(amount);\r\n    }\r\n\r\n    function mintYou(address _to, uint amount) public {\r\n        require(hasRole(DEFAULT_ADMIN_ROLE, _msgSender()),\"Error: You must have super admin role to mint YOU tokens.\");\r\n        youToken.mint(_to,amount);\r\n    }\r\n\r\n    fallback() external payable {\r\n        // custom function code\r\n    }\r\n\r\n    receive() external payable {\r\n        // custom function code\r\n    }\r\n\r\n}\r\n",
  "sourcePath": "C:\\Users\\seree\\Documents\\webdev\\wip\\serve-demo-avax\\src\\contracts\\YouWhoDapp.sol",
  "compiler": {
    "name": "solc",
    "version": "0.8.11+commit.d7f03943.Emscripten.clang"
  },
  "schemaVersion": "3.4.4",
  "updatedAt": "2022-01-24T07:00:48.804Z",
  "devdoc": {
    "kind": "dev",
    "methods": {
      "getRoleAdmin(bytes32)": {
        "details": "Returns the admin role that controls `role`. See {grantRole} and {revokeRole}. To change a role's admin, use {_setRoleAdmin}."
      },
      "getRoleMember(bytes32,uint256)": {
        "details": "Returns one of the accounts that have `role`. `index` must be a value between 0 and {getRoleMemberCount}, non-inclusive. Role bearers are not sorted in any particular way, and their ordering may change at any point. WARNING: When using {getRoleMember} and {getRoleMemberCount}, make sure you perform all queries on the same block. See the following https://forum.openzeppelin.com/t/iterating-over-elements-on-enumerableset-in-openzeppelin-contracts/2296[forum post] for more information."
      },
      "getRoleMemberCount(bytes32)": {
        "details": "Returns the number of accounts that have `role`. Can be used together with {getRoleMember} to enumerate all bearers of a role."
      },
      "grantRole(bytes32,address)": {
        "details": "Grants `role` to `account`. If `account` had not been already granted `role`, emits a {RoleGranted} event. Requirements: - the caller must have ``role``'s admin role."
      },
      "hasRole(bytes32,address)": {
        "details": "Returns `true` if `account` has been granted `role`."
      },
      "renounceRole(bytes32,address)": {
        "details": "Revokes `role` from the calling account. Roles are often managed via {grantRole} and {revokeRole}: this function's purpose is to provide a mechanism for accounts to lose their privileges if they are compromised (such as when a trusted device is misplaced). If the calling account had been revoked `role`, emits a {RoleRevoked} event. Requirements: - the caller must be `account`."
      },
      "revokeRole(bytes32,address)": {
        "details": "Revokes `role` from `account`. If `account` had been granted `role`, emits a {RoleRevoked} event. Requirements: - the caller must have ``role``'s admin role."
      },
      "supportsInterface(bytes4)": {
        "details": "See {IERC165-supportsInterface}."
      }
    },
    "version": 1
  },
  "userdoc": {
    "kind": "user",
    "methods": {},
    "version": 1
  }
}